******************************************************************************
                  TI ARM Linker Unix v20.2.1                   
******************************************************************************
>> Linked Mon Nov  9 13:11:44 2020

OUTPUT FILE NAME:   <Lab16_Tach.out>
ENTRY POINT SYMBOL: "_c_int00_noargs"  address: 00002a7d


MEMORY CONFIGURATION

         name            origin    length      used     unused   attr    fill
----------------------  --------  ---------  --------  --------  ----  --------
  MAIN                  00000000   00040000  00002d34  0003d2cc  R  X
  INFO                  00200000   00004000  00000000  00004000  R  X
  SRAM_CODE             01000000   00010000  000023db  0000dc25  RW X
  SRAM_DATA             20000000   00010000  000023db  0000dc25  RW  


SEGMENT ALLOCATION MAP

run origin  load origin   length   init length attrs members
----------  ----------- ---------- ----------- ----- -------
00000000    00000000    00002d38   00002d38    r-x
  00000000    00000000    000000e4   000000e4    r-- .intvecs
  000000e4    000000e4    00002a20   00002a20    r-x .text
  00002b04    00002b04    000001e8   000001e8    r-- .const
  00002cf0    00002cf0    00000048   00000048    r-- .cinit
20000000    20000000    000021dc   00000000    rw-
  20000000    20000000    00002197   00000000    rw- .bss
  20002198    20002198    00000044   00000000    rw- .data
2000fe00    2000fe00    00000200   00000000    rw-
  2000fe00    2000fe00    00000200   00000000    rw- .stack


SECTION ALLOCATION MAP

 output                                  attributes/
section   page    origin      length       input sections
--------  ----  ----------  ----------   ----------------
.intvecs   0    00000000    000000e4     
                  00000000    000000e4     startup_msp432p401r_ccs.obj (.intvecs:retain)

.text      0    000000e4    00002a20     
                  000000e4    00000b78     Nokia5110.obj (.text)
                  00000c5c    000006c8     TExaS.obj (.text)
                  00001324    00000634     Lab16_Tachmain.obj (.text)
                  00001958    00000420     PWM.obj (.text)
                  00001d78    0000032c     system_msp432p401r.obj (.text)
                  000020a4    000001e0     Clock.obj (.text)
                  00002284    000001cc     Motor.obj (.text)
                  00002450    0000013c     Tachometer.obj (.text)
                  0000258c    00000124     TA3InputCapture.obj (.text)
                  000026b0    000000f4     LaunchPad.obj (.text)
                  000027a4    000000a0     TimerA1.obj (.text)
                  00002844    0000009c     rtsv7M4_T_le_v4SPD16_eabi.lib : memcpy_t2.asm.obj (.text)
                  000028e0    0000007a                                   : memset_t2.asm.obj (.text)
                  0000295a    00000002     --HOLE-- [fill = 0]
                  0000295c    00000074     Bump.obj (.text)
                  000029d0    00000068     rtsv7M4_T_le_v4SPD16_eabi.lib : copy_decompress_lzss.c.obj (.text:decompress:lzss:__TI_decompress_lzss)
                  00002a38    00000044                                   : autoinit.c.obj (.text:__TI_auto_init_nobinit_nopinit:__TI_auto_init_nobinit_nopinit)
                  00002a7c    00000034                                   : boot_cortex_m.c.obj (.text:_c_int00_noargs:_c_int00_noargs)
                  00002ab0    00000024     CortexM.obj (.text)
                  00002ad4    0000000e     rtsv7M4_T_le_v4SPD16_eabi.lib : copy_decompress_none.c.obj (.text:decompress:none:__TI_decompress_none)
                  00002ae2    0000000e     startup_msp432p401r_ccs.obj (.text)
                  00002af0    0000000c     rtsv7M4_T_le_v4SPD16_eabi.lib : copy_zero_init.c.obj (.text:decompress:ZI:__TI_zero_init)
                  00002afc    00000004                                   : pre_init.c.obj (.text:_system_pre_init)
                  00002b00    00000004                                   : exit.c.obj (.text:abort:abort)

.const     0    00002b04    000001e8     
                  00002b04    000001e0     Nokia5110.obj (.const:ASCII)
                  00002ce4    00000008     Nokia5110.obj (.const:.string:Masks)

.cinit     0    00002cf0    00000048     
                  00002cf0    0000001f     (.cinit..data.load) [load image, compression = lzss]
                  00002d0f    00000001     --HOLE-- [fill = 0]
                  00002d10    0000000c     (__TI_handler_table)
                  00002d1c    00000004     --HOLE-- [fill = 0]
                  00002d20    00000008     (.cinit..bss.load) [load image, compression = zero_init]
                  00002d28    00000010     (__TI_cinit_table)

.init_array 
*          0    00000000    00000000     UNINITIALIZED

.binit     0    00000000    00000000     

.bss       0    20000000    00002197     UNINITIALIZED
                  20000000    000007d0     (.common:DutyBuffer)
                  200007d0    000007d0     (.common:PeriodBuffer0)
                  20000fa0    000007d0     (.common:PeriodBuffer1)
                  20001770    000003e8     (.common:SpeedBuffer0)
                  20001b58    000003e8     (.common:SpeedBuffer1)
                  20001f40    000001f8     (.common:Screen)
                  20002138    00000014     (.common:LeftTach)
                  2000214c    00000014     (.common:RightTach)
                  20002160    00000004     (.common:Done0)
                  20002164    00000004     (.common:Done1)
                  20002168    00000004     (.common:Duty)
                  2000216c    00000004     (.common:LeftSteps)
                  20002170    00000004     (.common:PeriodicTask2)
                  20002174    00000004     (.common:RightSteps)
                  20002178    00000004     (.common:Time)
                  2000217c    00000004     (.common:TimerA1Task)
                  20002180    00000002     (.common:ActualL)
                  20002182    00000002     (.common:ActualR)
                  20002184    00000002     (.common:First0)
                  20002186    00000002     (.common:First1)
                  20002188    00000002     (.common:Period0)
                  2000218a    00000002     (.common:Period1)
                  2000218c    00000002     (.common:Tachometer_FirstLeftTime)
                  2000218e    00000002     (.common:Tachometer_FirstRightTime)
                  20002190    00000002     (.common:Tachometer_SecondLeftTime)
                  20002192    00000002     (.common:Tachometer_SecondRightTime)
                  20002194    00000001     (.common:LeftDir)
                  20002195    00000001     (.common:LogicData)
                  20002196    00000001     (.common:RightDir)

.data      0    20002198    00000044     UNINITIALIZED
                  20002198    00000018     Clock.obj (.data)
                  200021b0    0000000c     TExaS.obj (.data)
                  200021bc    0000000a     Tachometer.obj (.data)
                  200021c6    00000008     Lab16_Tachmain.obj (.data)
                  200021ce    00000002     --HOLE--
                  200021d0    00000008     TA3InputCapture.obj (.data)
                  200021d8    00000004     system_msp432p401r.obj (.data)

.stack     0    2000fe00    00000200     UNINITIALIZED
                  2000fe00    00000004     rtsv7M4_T_le_v4SPD16_eabi.lib : boot_cortex_m.c.obj (.stack)
                  2000fe04    000001fc     --HOLE--

__llvm_prf_cnts 
*          0    20000000    00000000     UNINITIALIZED

MODULE SUMMARY

       Module                        code    ro data   rw data
       ------                        ----    -------   -------
    ./
       Lab16_Tachmain.obj            1588    0         16172  
       Nokia5110.obj                 2936    488       1008   
       TExaS.obj                     1736    0         34     
       PWM.obj                       1056    0         0      
       system_msp432p401r.obj        812     0         8      
       Clock.obj                     480     0         48     
       Motor.obj                     460     0         0      
       Tachometer.obj                316     0         36     
       TA3InputCapture.obj           292     0         16     
       LaunchPad.obj                 244     0         0      
       startup_msp432p401r_ccs.obj   14      228       0      
       TimerA1.obj                   160     0         8      
       Bump.obj                      116     0         0      
       CortexM.obj                   36      0         0      
    +--+-----------------------------+-------+---------+---------+
       Total:                        10246   716       17330  
                                                              
    /Applications/ti/ccs1010/ccs/tools/compiler/ti-cgt-arm_20.2.1.LTS/lib/rtsv7M4_T_le_v4SPD16_eabi.lib
       memcpy_t2.asm.obj             156     0         0      
       memset_t2.asm.obj             122     0         0      
       copy_decompress_lzss.c.obj    104     0         0      
       autoinit.c.obj                68      0         0      
       boot_cortex_m.c.obj           52      0         0      
       copy_decompress_none.c.obj    14      0         0      
       copy_zero_init.c.obj          12      0         0      
       exit.c.obj                    4       0         0      
       pre_init.c.obj                4       0         0      
    +--+-----------------------------+-------+---------+---------+
       Total:                        536     0         0      
                                                              
       Stack:                        0       0         1024   
       Linker Generated:             0       67        0      
    +--+-----------------------------+-------+---------+---------+
       Grand Total:                  10782   783       18354  


LINKER GENERATED COPY TABLES

__TI_cinit_table @ 00002d28 records: 2, size/record: 8, table size: 16
	.data: load addr=00002cf0, load size=0000001f bytes, run addr=20002198, run size=00000044 bytes, compression=lzss
	.bss: load addr=00002d20, load size=00000008 bytes, run addr=20000000, run size=00002197 bytes, compression=zero_init


LINKER GENERATED HANDLER TABLE

__TI_handler_table @ 00002d10 records: 3, size/record: 4, table size: 12
	index: 0, handler: __TI_decompress_lzss
	index: 1, handler: __TI_decompress_none
	index: 2, handler: __TI_zero_init


GLOBAL SYMBOLS: SORTED ALPHABETICALLY BY Name 

address   name                                   
-------   ----                                   
00002aef  ADC14_IRQHandler                       
00001069  ADC_Init                               
00002aef  AES256_IRQHandler                      
20002180  ActualL                                
20002182  ActualR                                
0000295d  Bump_Init                              
00002985  Bump_Read                              
00002aef  BusFault_Handler                       
00002b01  C$$EXIT                                
00002aef  COMP_E0_IRQHandler                     
00002aef  COMP_E1_IRQHandler                     
200021a0  CPMwait                                
00002aef  CS_IRQHandler                          
200021d0  CaptureTask0                           
200021d4  CaptureTask2                           
20002198  ClockFrequency                         
000021f9  Clock_Delay1ms                         
000021cf  Clock_Delay1us                         
000021bb  Clock_GetFreq                          
000020a5  Clock_Init48MHz                        
00001395  Collect                                
200021ac  Crystalstable                          
00002aef  DMA_ERR_IRQHandler                     
00002aef  DMA_INT0_IRQHandler                    
00002aef  DMA_INT1_IRQHandler                    
00002aef  DMA_INT2_IRQHandler                    
00002aef  DMA_INT3_IRQHandler                    
00002aef  DebugMon_Handler                       
00002aef  Default_Handler                        
200021c6  DesiredL                               
200021c8  DesiredR                               
00002ab1  DisableInterrupts                      
20002160  Done0                                  
20002164  Done1                                  
20002168  Duty                                   
20000000  DutyBuffer                             
00002aef  EUSCIA0_IRQHandler                     
00002aef  EUSCIA1_IRQHandler                     
00002aef  EUSCIA2_IRQHandler                     
00002aef  EUSCIA3_IRQHandler                     
00002aef  EUSCIB0_IRQHandler                     
00002aef  EUSCIB1_IRQHandler                     
00002aef  EUSCIB2_IRQHandler                     
00002aef  EUSCIB3_IRQHandler                     
00002ab7  EnableInterrupts                       
00002ac7  EndCritical                            
00002aef  FLCTL_IRQHandler                       
00002aef  FPU_IRQHandler                         
20002184  First0                                 
20002186  First1                                 
00002aef  HardFault_Handler                      
200021a8  IFlags                                 
00001589  LCDActual                              
00001541  LCDClear                               
00001553  LCDDesired                             
000026b1  LaunchPad_Init                         
00002721  LaunchPad_Input                        
0000273b  LaunchPad_LED                          
00002759  LaunchPad_Output                       
20002194  LeftDir                                
200021ca  LeftDuty                               
2000216c  LeftSteps                              
20002138  LeftTach                               
00000c5d  LogicAnalyzer                          
00000c67  LogicAnalyzer_P1                       
00000d3d  LogicAnalyzer_P10                      
00000c75  LogicAnalyzer_P2                       
00000d4b  LogicAnalyzer_P27_P26_P82_P92_P104_P105
00000c83  LogicAnalyzer_P2_7654                  
00000c93  LogicAnalyzer_P3                       
00000ca1  LogicAnalyzer_P4                       
00000cbf  LogicAnalyzer_P4_765320                
00000caf  LogicAnalyzer_P4_765432                
00000cf7  LogicAnalyzer_P5                       
00000d83  LogicAnalyzer_P55_P54_P27_P26_P37_P36  
00000d05  LogicAnalyzer_P6                       
00000d13  LogicAnalyzer_P7                       
00000d21  LogicAnalyzer_P8                       
00000d2f  LogicAnalyzer_P9                       
20002195  LogicData                              
00002ce4  Masks                                  
00002aef  MemManage_Handler                      
000023e5  Motor_Backward                         
000022ff  Motor_Forward                          
00002285  Motor_Init                             
00002395  Motor_Left                             
00002345  Motor_Right                            
000022e5  Motor_Stop                             
00002aef  NMI_Handler                            
00000989  Nokia5110_Clear                        
00000bd5  Nokia5110_ClearBuffer                  
00000c09  Nokia5110_ClrPxl                       
00000bff  Nokia5110_DisplayBuffer                
000009b5  Nokia5110_DrawFullImage                
0000013b  Nokia5110_Init                         
000001e5  Nokia5110_OutChar                      
000007f7  Nokia5110_OutHex7                      
00000459  Nokia5110_OutSDec                      
000006f1  Nokia5110_OutSFix1                     
00000225  Nokia5110_OutString                    
00000243  Nokia5110_OutUDec                      
0000085d  Nokia5110_OutUDec16                    
000008f7  Nokia5110_OutUDec2                     
00000663  Nokia5110_OutUFix1                     
0000082d  Nokia5110_OutUHex7                     
000009f1  Nokia5110_PrintBMP                     
0000094d  Nokia5110_SetCursor                    
00000c2f  Nokia5110_SetPxl                       
00002aef  PCM_IRQHandler                         
00002aef  PORT1_IRQHandler                       
00002aef  PORT2_IRQHandler                       
00002aef  PORT3_IRQHandler                       
00002aef  PORT4_IRQHandler                       
00002aef  PORT5_IRQHandler                       
00002aef  PORT6_IRQHandler                       
00002aef  PSS_IRQHandler                         
00001a43  PWM_Duty1                              
00001a63  PWM_Duty2                              
00001b07  PWM_Duty3                              
00001b27  PWM_Duty4                              
00001959  PWM_Init1                              
000019bf  PWM_Init12                             
00001a83  PWM_Init34                             
00001c6f  PWM_RobotArmDuty0                      
00001c95  PWM_RobotArmDuty1                      
00001cbb  PWM_RobotArmDuty2                      
00001c8f  PWM_RobotArmGetDuty0                   
00001cb5  PWM_RobotArmGetDuty1                   
00001cdb  PWM_RobotArmGetDuty2                   
00001b47  PWM_RobotArmInit                       
00002aef  PendSV_Handler                         
20002188  Period0                                
2000218a  Period1                                
200007d0  PeriodBuffer0                          
20000fa0  PeriodBuffer1                          
00001325  PeriodMeasure0                         
0000135d  PeriodMeasure1                         
20002170  PeriodicTask2                          
00000e31  PeriodicTask2_Init                     
00000eab  PeriodicTask2_Stop                     
200021a4  Postwait                               
2000219c  Prewait                                
000014c1  Program16_1                            
00001715  Program16_2                            
00002aef  RTC_C_IRQHandler                       
00002ae3  Reset_Handler                          
20002196  RightDir                               
200021cc  RightDuty                              
20002174  RightSteps                             
2000214c  RightTach                              
00002aef  SVC_Handler                            
00000dad  Scope                                  
20001f40  Screen                                 
20001770  SpeedBuffer0                           
20001b58  SpeedBuffer1                           
00002abd  StartCritical                          
00002aef  SysTick_Handler                        
200021d8  SystemCoreClock                        
00001d79  SystemCoreClockUpdate                  
00001fed  SystemInit                             
00000e9b  T32_INT1_IRQHandler                    
00000e9b  T32_INT1_IRQHandler                    
00002aef  T32_INT2_IRQHandler                    
00002aef  T32_INTC_IRQHandler                    
00002aef  TA0_0_IRQHandler                       
00002aef  TA0_N_IRQHandler                       
00002815  TA1_0_IRQHandler                       
00002815  TA1_0_IRQHandler                       
00002aef  TA1_N_IRQHandler                       
00002aef  TA2_0_IRQHandler                       
00002aef  TA2_N_IRQHandler                       
00002649  TA3_0_IRQHandler                       
00002649  TA3_0_IRQHandler                       
00002663  TA3_N_IRQHandler                       
00002663  TA3_N_IRQHandler                       
00000ffd  TExaS_Clear0                           
00001009  TExaS_Clear1                           
0000101d  TExaS_Clear2                           
00001029  TExaS_Clear3                           
00001035  TExaS_Clear4                           
00001037  TExaS_Clear5                           
00001043  TExaS_Clear6                           
0000112d  TExaS_Init                             
200021b4  TExaS_ScopeErrConflict                 
200021b0  TExaS_ScopeErrLostData                 
200021b8  TExaS_ScopeWrnReconfig                 
00000f8b  TExaS_Set                              
00000fa3  TExaS_Set0                             
00000faf  TExaS_Set1                             
00000fbb  TExaS_Set2                             
00000fc7  TExaS_Set3                             
00000fd3  TExaS_Set4                             
00000fd5  TExaS_Set5                             
00000fed  TExaS_Set6                             
000012b9  TExaS_Stop                             
00000f41  TExaS_Task0                            
00000f4d  TExaS_Task1                            
00000f59  TExaS_Task2                            
00000f65  TExaS_Task3                            
00000f71  TExaS_Task4                            
00000f73  TExaS_Task5                            
00000f7f  TExaS_Task6                            
2000218c  Tachometer_FirstLeftTime               
2000218e  Tachometer_FirstRightTime              
00002507  Tachometer_Get                         
000024dd  Tachometer_Init                        
200021c5  Tachometer_LeftDir                     
200021c0  Tachometer_LeftSteps                   
200021c4  Tachometer_RightDir                    
200021bc  Tachometer_RightSteps                  
20002190  Tachometer_SecondLeftTime              
20002192  Tachometer_SecondRightTime             
0000010f  Testcommandwrite                       
20002178  Time                                   
2000217c  TimerA1Task                            
000027a5  TimerA1_Init                           
00002801  TimerA1_Stop                           
00002599  TimerA3Capture_Init                    
00000f15  UART_InChar                            
00000ebb  UART_Init                              
00000f25  UART_OutChar                           
00002aef  UsageFault_Handler                     
4000480c  WDTCTL_SYM                             
00002aef  WDT_A_IRQHandler                       
00002acf  WaitForInterrupt                       
20010000  __STACK_END                            
00000200  __STACK_SIZE                           
00002d28  __TI_CINIT_Base                        
00002d38  __TI_CINIT_Limit                       
00002d10  __TI_Handler_Table_Base                
00002d1c  __TI_Handler_Table_Limit               
00002a39  __TI_auto_init_nobinit_nopinit         
000029d1  __TI_decompress_lzss                   
00002ad5  __TI_decompress_none                   
ffffffff  __TI_pprof_out_hndl                    
ffffffff  __TI_prof_data_size                    
ffffffff  __TI_prof_data_start                   
00000000  __TI_static_base__                     
00002af1  __TI_zero_init                         
000028e1  __aeabi_memclr                         
000028e1  __aeabi_memclr4                        
000028e1  __aeabi_memclr8                        
00002845  __aeabi_memcpy                         
00002845  __aeabi_memcpy4                        
00002845  __aeabi_memcpy8                        
000028e3  __aeabi_memset                         
000028e3  __aeabi_memset4                        
000028e3  __aeabi_memset8                        
ffffffff  __binit__                              
ffffffff  __c_args__                             
UNDEFED   __mpu_init                             
2000fe00  __stack                                
20000000  __start___llvm_prf_cnts                
20000000  __stop___llvm_prf_cnts                 
00002a7d  _c_int00_noargs                        
UNDEFED   _system_post_cinit                     
00002afd  _system_pre_init                       
00002b01  abort                                  
00001659  avg                                    
ffffffff  binit                                  
000021c1  delay                                  
00000000  interruptVectors                       
00001929  main                                   
00002845  memcpy                                 
000028e9  memset                                 
0000258d  ta3dummy                               
00002497  tachometerLeftInt                      
00002451  tachometerRightInt                     


GLOBAL SYMBOLS: SORTED BY Symbol Address 

address   name                                   
-------   ----                                   
00000000  __TI_static_base__                     
00000000  interruptVectors                       
0000010f  Testcommandwrite                       
0000013b  Nokia5110_Init                         
000001e5  Nokia5110_OutChar                      
00000200  __STACK_SIZE                           
00000225  Nokia5110_OutString                    
00000243  Nokia5110_OutUDec                      
00000459  Nokia5110_OutSDec                      
00000663  Nokia5110_OutUFix1                     
000006f1  Nokia5110_OutSFix1                     
000007f7  Nokia5110_OutHex7                      
0000082d  Nokia5110_OutUHex7                     
0000085d  Nokia5110_OutUDec16                    
000008f7  Nokia5110_OutUDec2                     
0000094d  Nokia5110_SetCursor                    
00000989  Nokia5110_Clear                        
000009b5  Nokia5110_DrawFullImage                
000009f1  Nokia5110_PrintBMP                     
00000bd5  Nokia5110_ClearBuffer                  
00000bff  Nokia5110_DisplayBuffer                
00000c09  Nokia5110_ClrPxl                       
00000c2f  Nokia5110_SetPxl                       
00000c5d  LogicAnalyzer                          
00000c67  LogicAnalyzer_P1                       
00000c75  LogicAnalyzer_P2                       
00000c83  LogicAnalyzer_P2_7654                  
00000c93  LogicAnalyzer_P3                       
00000ca1  LogicAnalyzer_P4                       
00000caf  LogicAnalyzer_P4_765432                
00000cbf  LogicAnalyzer_P4_765320                
00000cf7  LogicAnalyzer_P5                       
00000d05  LogicAnalyzer_P6                       
00000d13  LogicAnalyzer_P7                       
00000d21  LogicAnalyzer_P8                       
00000d2f  LogicAnalyzer_P9                       
00000d3d  LogicAnalyzer_P10                      
00000d4b  LogicAnalyzer_P27_P26_P82_P92_P104_P105
00000d83  LogicAnalyzer_P55_P54_P27_P26_P37_P36  
00000dad  Scope                                  
00000e31  PeriodicTask2_Init                     
00000e9b  T32_INT1_IRQHandler                    
00000e9b  T32_INT1_IRQHandler                    
00000eab  PeriodicTask2_Stop                     
00000ebb  UART_Init                              
00000f15  UART_InChar                            
00000f25  UART_OutChar                           
00000f41  TExaS_Task0                            
00000f4d  TExaS_Task1                            
00000f59  TExaS_Task2                            
00000f65  TExaS_Task3                            
00000f71  TExaS_Task4                            
00000f73  TExaS_Task5                            
00000f7f  TExaS_Task6                            
00000f8b  TExaS_Set                              
00000fa3  TExaS_Set0                             
00000faf  TExaS_Set1                             
00000fbb  TExaS_Set2                             
00000fc7  TExaS_Set3                             
00000fd3  TExaS_Set4                             
00000fd5  TExaS_Set5                             
00000fed  TExaS_Set6                             
00000ffd  TExaS_Clear0                           
00001009  TExaS_Clear1                           
0000101d  TExaS_Clear2                           
00001029  TExaS_Clear3                           
00001035  TExaS_Clear4                           
00001037  TExaS_Clear5                           
00001043  TExaS_Clear6                           
00001069  ADC_Init                               
0000112d  TExaS_Init                             
000012b9  TExaS_Stop                             
00001325  PeriodMeasure0                         
0000135d  PeriodMeasure1                         
00001395  Collect                                
000014c1  Program16_1                            
00001541  LCDClear                               
00001553  LCDDesired                             
00001589  LCDActual                              
00001659  avg                                    
00001715  Program16_2                            
00001929  main                                   
00001959  PWM_Init1                              
000019bf  PWM_Init12                             
00001a43  PWM_Duty1                              
00001a63  PWM_Duty2                              
00001a83  PWM_Init34                             
00001b07  PWM_Duty3                              
00001b27  PWM_Duty4                              
00001b47  PWM_RobotArmInit                       
00001c6f  PWM_RobotArmDuty0                      
00001c8f  PWM_RobotArmGetDuty0                   
00001c95  PWM_RobotArmDuty1                      
00001cb5  PWM_RobotArmGetDuty1                   
00001cbb  PWM_RobotArmDuty2                      
00001cdb  PWM_RobotArmGetDuty2                   
00001d79  SystemCoreClockUpdate                  
00001fed  SystemInit                             
000020a5  Clock_Init48MHz                        
000021bb  Clock_GetFreq                          
000021c1  delay                                  
000021cf  Clock_Delay1us                         
000021f9  Clock_Delay1ms                         
00002285  Motor_Init                             
000022e5  Motor_Stop                             
000022ff  Motor_Forward                          
00002345  Motor_Right                            
00002395  Motor_Left                             
000023e5  Motor_Backward                         
00002451  tachometerRightInt                     
00002497  tachometerLeftInt                      
000024dd  Tachometer_Init                        
00002507  Tachometer_Get                         
0000258d  ta3dummy                               
00002599  TimerA3Capture_Init                    
00002649  TA3_0_IRQHandler                       
00002649  TA3_0_IRQHandler                       
00002663  TA3_N_IRQHandler                       
00002663  TA3_N_IRQHandler                       
000026b1  LaunchPad_Init                         
00002721  LaunchPad_Input                        
0000273b  LaunchPad_LED                          
00002759  LaunchPad_Output                       
000027a5  TimerA1_Init                           
00002801  TimerA1_Stop                           
00002815  TA1_0_IRQHandler                       
00002815  TA1_0_IRQHandler                       
00002845  __aeabi_memcpy                         
00002845  __aeabi_memcpy4                        
00002845  __aeabi_memcpy8                        
00002845  memcpy                                 
000028e1  __aeabi_memclr                         
000028e1  __aeabi_memclr4                        
000028e1  __aeabi_memclr8                        
000028e3  __aeabi_memset                         
000028e3  __aeabi_memset4                        
000028e3  __aeabi_memset8                        
000028e9  memset                                 
0000295d  Bump_Init                              
00002985  Bump_Read                              
000029d1  __TI_decompress_lzss                   
00002a39  __TI_auto_init_nobinit_nopinit         
00002a7d  _c_int00_noargs                        
00002ab1  DisableInterrupts                      
00002ab7  EnableInterrupts                       
00002abd  StartCritical                          
00002ac7  EndCritical                            
00002acf  WaitForInterrupt                       
00002ad5  __TI_decompress_none                   
00002ae3  Reset_Handler                          
00002aef  ADC14_IRQHandler                       
00002aef  AES256_IRQHandler                      
00002aef  BusFault_Handler                       
00002aef  COMP_E0_IRQHandler                     
00002aef  COMP_E1_IRQHandler                     
00002aef  CS_IRQHandler                          
00002aef  DMA_ERR_IRQHandler                     
00002aef  DMA_INT0_IRQHandler                    
00002aef  DMA_INT1_IRQHandler                    
00002aef  DMA_INT2_IRQHandler                    
00002aef  DMA_INT3_IRQHandler                    
00002aef  DebugMon_Handler                       
00002aef  Default_Handler                        
00002aef  EUSCIA0_IRQHandler                     
00002aef  EUSCIA1_IRQHandler                     
00002aef  EUSCIA2_IRQHandler                     
00002aef  EUSCIA3_IRQHandler                     
00002aef  EUSCIB0_IRQHandler                     
00002aef  EUSCIB1_IRQHandler                     
00002aef  EUSCIB2_IRQHandler                     
00002aef  EUSCIB3_IRQHandler                     
00002aef  FLCTL_IRQHandler                       
00002aef  FPU_IRQHandler                         
00002aef  HardFault_Handler                      
00002aef  MemManage_Handler                      
00002aef  NMI_Handler                            
00002aef  PCM_IRQHandler                         
00002aef  PORT1_IRQHandler                       
00002aef  PORT2_IRQHandler                       
00002aef  PORT3_IRQHandler                       
00002aef  PORT4_IRQHandler                       
00002aef  PORT5_IRQHandler                       
00002aef  PORT6_IRQHandler                       
00002aef  PSS_IRQHandler                         
00002aef  PendSV_Handler                         
00002aef  RTC_C_IRQHandler                       
00002aef  SVC_Handler                            
00002aef  SysTick_Handler                        
00002aef  T32_INT2_IRQHandler                    
00002aef  T32_INTC_IRQHandler                    
00002aef  TA0_0_IRQHandler                       
00002aef  TA0_N_IRQHandler                       
00002aef  TA1_N_IRQHandler                       
00002aef  TA2_0_IRQHandler                       
00002aef  TA2_N_IRQHandler                       
00002aef  UsageFault_Handler                     
00002aef  WDT_A_IRQHandler                       
00002af1  __TI_zero_init                         
00002afd  _system_pre_init                       
00002b01  C$$EXIT                                
00002b01  abort                                  
00002ce4  Masks                                  
00002d10  __TI_Handler_Table_Base                
00002d1c  __TI_Handler_Table_Limit               
00002d28  __TI_CINIT_Base                        
00002d38  __TI_CINIT_Limit                       
20000000  DutyBuffer                             
20000000  __start___llvm_prf_cnts                
20000000  __stop___llvm_prf_cnts                 
200007d0  PeriodBuffer0                          
20000fa0  PeriodBuffer1                          
20001770  SpeedBuffer0                           
20001b58  SpeedBuffer1                           
20001f40  Screen                                 
20002138  LeftTach                               
2000214c  RightTach                              
20002160  Done0                                  
20002164  Done1                                  
20002168  Duty                                   
2000216c  LeftSteps                              
20002170  PeriodicTask2                          
20002174  RightSteps                             
20002178  Time                                   
2000217c  TimerA1Task                            
20002180  ActualL                                
20002182  ActualR                                
20002184  First0                                 
20002186  First1                                 
20002188  Period0                                
2000218a  Period1                                
2000218c  Tachometer_FirstLeftTime               
2000218e  Tachometer_FirstRightTime              
20002190  Tachometer_SecondLeftTime              
20002192  Tachometer_SecondRightTime             
20002194  LeftDir                                
20002195  LogicData                              
20002196  RightDir                               
20002198  ClockFrequency                         
2000219c  Prewait                                
200021a0  CPMwait                                
200021a4  Postwait                               
200021a8  IFlags                                 
200021ac  Crystalstable                          
200021b0  TExaS_ScopeErrLostData                 
200021b4  TExaS_ScopeErrConflict                 
200021b8  TExaS_ScopeWrnReconfig                 
200021bc  Tachometer_RightSteps                  
200021c0  Tachometer_LeftSteps                   
200021c4  Tachometer_RightDir                    
200021c5  Tachometer_LeftDir                     
200021c6  DesiredL                               
200021c8  DesiredR                               
200021ca  LeftDuty                               
200021cc  RightDuty                              
200021d0  CaptureTask0                           
200021d4  CaptureTask2                           
200021d8  SystemCoreClock                        
2000fe00  __stack                                
20010000  __STACK_END                            
4000480c  WDTCTL_SYM                             
ffffffff  __TI_pprof_out_hndl                    
ffffffff  __TI_prof_data_size                    
ffffffff  __TI_prof_data_start                   
ffffffff  __binit__                              
ffffffff  __c_args__                             
ffffffff  binit                                  
UNDEFED   __mpu_init                             
UNDEFED   _system_post_cinit                     

[268 symbols]
