******************************************************************************
                  TI ARM Linker PC v18.12.1                    
******************************************************************************
>> Linked Wed Jul 31 21:52:10 2019

OUTPUT FILE NAME:   <Competition_BLE.out>
ENTRY POINT SYMBOL: "_c_int00_noargs"  address: 00005de9


MEMORY CONFIGURATION

         name            origin    length      used     unused   attr    fill
----------------------  --------  ---------  --------  --------  ----  --------
  MAIN                  00000000   00040000  00006372  00039c8e  R  X
  INFO                  00200000   00004000  00000000  00004000  R  X
  SRAM_CODE             01000000   00010000  000041d2  0000be2e  RW X
  SRAM_DATA             20000000   00010000  000041d2  0000be2e  RW  


SEGMENT ALLOCATION MAP

run origin  load origin   length   init length attrs members
----------  ----------- ---------- ----------- ----- -------
00000000    00000000    00006378   00006378    r-x
  00000000    00000000    000000e4   000000e4    r-- .intvecs
  000000e4    000000e4    00005ee6   00005ee6    r-x .text
  00005fca    00005fca    00000260   00000260    r-- .const
  00006230    00006230    00000148   00000148    r-- .cinit
20000000    20000000    00003fd8   00000000    rw-
  20000000    20000000    000038ba   00000000    rw- .bss
  200038c0    200038c0    00000400   00000000    rw- .sysmem
  20003cc0    20003cc0    00000318   00000000    rw- .data
2000fe00    2000fe00    00000200   00000000    rw-
  2000fe00    2000fe00    00000200   00000000    rw- .stack


SECTION ALLOCATION MAP

 output                                  attributes/
section   page    origin      length       input sections
--------  ----  ----------  ----------   ----------------
.intvecs   0    00000000    000000e4     
                  00000000    000000e4     startup_msp432p401r_ccs.obj (.intvecs:retain)

.text      0    000000e4    00005ee6     
                  000000e4    00001798     SSD1306.obj (.text)
                  0000187c    00001014     AP.obj (.text)
                  00002890    000007cc     Robot_BLEmain.obj (.text)
                  0000305c    000006e0     UART0.obj (.text)
                  0000373c    00000490     ADC14.obj (.text)
                  00003bcc    00000420     PWM.obj (.text)
                  00003fec    000003a0     LPF.obj (.text)
                  0000438c    0000032c     system_msp432p401r.obj (.text)
                  000046b8    000001e0     Clock.obj (.text)
                  00004898    000001d4     TA3InputCapture.obj (.text)
                  00004a6c    000001a4     UART1.obj (.text)
                  00004c10    0000018c     Motor.obj (.text)
                  00004d9c    0000010c     rtsv7M4_T_le_v4SPD16_eabi.lib : fopen.c.obj (.text:_openfile)
                  00004ea8    000000f4     LaunchPad.obj (.text)
                  00004f9c    000000f4     rtsv7M4_T_le_v4SPD16_eabi.lib : memory.c.obj (.text:aligned_alloc)
                  00005090    000000e8                                   : memory.c.obj (.text:free)
                  00005178    000000dc                                   : setvbuf.c.obj (.text:setvbuf)
                  00005254    000000c0     GPIO.obj (.text)
                  00005314    000000bc     rtsv7M4_T_le_v4SPD16_eabi.lib : open.c.obj (.text:open)
                  000053d0    000000b8                                   : add_device.c.obj (.text:add_device)
                  00005488    000000a8     TimerA1.obj (.text)
                  00005530    0000009c     rtsv7M4_T_le_v4SPD16_eabi.lib : fopen.c.obj (.text:fopen)
                  000055cc    0000009c                                   : memcpy_t2.asm.obj (.text)
                  00005668    0000007c     IRDistance.obj (.text)
                  000056e4    0000007c     rtsv7M4_T_le_v4SPD16_eabi.lib : memory.c.obj (.text:split)
                  00005760    0000007a                                   : memset_t2.asm.obj (.text)
                  000057da    00000002                                   : _lock.c.obj (.text:_nop)
                  000057dc    00000078     Bump.obj (.text)
                  00005854    00000074     rtsv7M4_T_le_v4SPD16_eabi.lib : fclose.c.obj (.text:__TI_closefile)
                  000058c8    00000068                                   : hostlseek.c.obj (.text:HOSTlseek)
                  00005930    00000068                                   : hostrename.c.obj (.text:HOSTrename)
                  00005998    00000068                                   : copy_decompress_lzss.c.obj (.text:decompress:lzss:__TI_decompress_lzss)
                  00005a00    00000060                                   : hostopen.c.obj (.text:HOSTopen)
                  00005a60    0000005c                                   : close.c.obj (.text:close)
                  00005abc    00000058                                   : hostread.c.obj (.text:HOSTread)
                  00005b14    00000058                                   : hostwrite.c.obj (.text:HOSTwrite)
                  00005b6c    0000004c                                   : fflush.c.obj (.text:__TI_doflush)
                  00005bb8    00000048                                   : exit.c.obj (.text:exit)
                  00005c00    00000044                                   : hostclose.c.obj (.text:HOSTclose)
                  00005c44    00000044                                   : hostunlink.c.obj (.text:HOSTunlink)
                  00005c88    00000044                                   : autoinit.c.obj (.text:__TI_auto_init_nobinit_nopinit:__TI_auto_init_nobinit_nopinit)
                  00005ccc    00000044                                   : getdevice.c.obj (.text:getdevice)
                  00005d10    00000038                                   : trgmsg.c.obj (.text:__TI_writemsg)
                  00005d48    00000036                                   : strncpy.c.obj (.text:strncpy)
                  00005d7e    00000002     --HOLE-- [fill = 0]
                  00005d80    00000034                                   : fopen.c.obj (.text:__TI_cleanup)
                  00005db4    00000034                                   : trgmsg.c.obj (.text:__TI_readmsg)
                  00005de8    00000034                                   : boot_cortex_m.c.obj (.text:_c_int00_noargs:_c_int00_noargs)
                  00005e1c    00000034                                   : fopen.c.obj (.text:freopen)
                  00005e50    00000030                                   : getdevice.c.obj (.text:finddevice)
                  00005e80    0000002c                                   : unlink.c.obj (.text:unlink)
                  00005eac    00000028                                   : memory.c.obj (.text:free_list_insert)
                  00005ed4    00000028                                   : write.c.obj (.text:write)
                  00005efc    00000024     CortexM.obj (.text)
                  00005f20    0000001c     rtsv7M4_T_le_v4SPD16_eabi.lib : memory.c.obj (.text:free_list_remove)
                  00005f3c    00000018                                   : strcmp.c.obj (.text:strcmp)
                  00005f54    00000016                                   : strchr.c.obj (.text:strchr)
                  00005f6a    00000014                                   : strcpy.c.obj (.text:strcpy)
                  00005f7e    00000014                                   : strlen.c.obj (.text:strlen)
                  00005f92    0000000e                                   : copy_decompress_none.c.obj (.text:decompress:none:__TI_decompress_none)
                  00005fa0    0000000e     startup_msp432p401r_ccs.obj (.text)
                  00005fae    0000000c     rtsv7M4_T_le_v4SPD16_eabi.lib : copy_zero_init.c.obj (.text:decompress:ZI:__TI_zero_init)
                  00005fba    00000008                                   : memory.c.obj (.text:malloc)
                  00005fc2    00000004                                   : pre_init.c.obj (.text:_system_pre_init)
                  00005fc6    00000004                                   : exit.c.obj (.text:abort:abort)

.const     0    00005fca    00000260     
                  00005fca    000001e0     SSD1306.obj (.const:ASCII)
                  000061aa    00000014     AP.obj (.const:.string:NPI_StartAdvertisement)
                  000061be    00000011     AP.obj (.const:.string:NPI_SetAdvertisement1)
                  000061cf    00000009     AP.obj (.const:.string:HCI_EXT_ResetSystemCmd)
                  000061d8    00000008     SSD1306.obj (.const:.string:postmask)
                  000061e0    00000008     SSD1306.obj (.const:.string:premask)
                  000061e8    00000006     AP.obj (.const:.string:NPI_GetStatus)
                  000061ee    00000006     AP.obj (.const:.string:NPI_GetVersion)
                  000061f4    00000006     AP.obj (.const:.string:NPI_Register)
                  000061fa    00000006     SSD1306.obj (.const:.string:init5)
                  00006200    00000005     SSD1306.obj (.const:.string:dlist1)
                  00006205    00000004     SSD1306.obj (.const:.string:init1)
                  00006209    00000004     SSD1306.obj (.const:.string:init2)
                  0000620d    00000004     SSD1306.obj (.const:.string:init3)
                  00006211    00000003     SSD1306.obj (.const:.string:init4b)
                  00006214    00000003     SSD1306.obj (.const:.string:scrollList1b)
                  00006217    00000003     SSD1306.obj (.const:.string:scrollList2b)
                  0000621a    00000002     SSD1306.obj (.const:.string:scrollList1a)
                  0000621c    00000002     SSD1306.obj (.const:.string:scrollList2a)
                  0000621e    00000002     SSD1306.obj (.const:.string:scrollList3a)
                  00006220    00000002     SSD1306.obj (.const:.string:scrollList3b)
                  00006222    00000002     SSD1306.obj (.const:.string:scrollList3c)
                  00006224    00000002     SSD1306.obj (.const:.string:scrollList4a)
                  00006226    00000002     SSD1306.obj (.const:.string:scrollList4b)
                  00006228    00000002     SSD1306.obj (.const:.string:scrollList4c)

.cinit     0    00006230    00000148     
                  00006230    00000124     (.cinit..data.load) [load image, compression = lzss]
                  00006354    0000000c     (__TI_handler_table)
                  00006360    00000008     (.cinit..bss.load) [load image, compression = zero_init]
                  00006368    00000010     (__TI_cinit_table)

.init_array 
*          0    00000000    00000000     UNINITIALIZED

.binit     0    00000000    00000000     

.bss       0    20000000    000038ba     UNINITIALIZED
                  20000000    00001000     (.common:x)
                  20001000    00001000     (.common:x2)
                  20002000    00001000     (.common:x3)
                  20003000    00000400     (.common:buffer)
                  20003400    00000120     rtsv7M4_T_le_v4SPD16_eabi.lib : trgmsg.c.obj (.bss:_CIOBUF_)
                  20003520    00000100     (.common:RxFIFO)
                  20003620    000000a0     (.common:CharacteristicList)
                  200036c0    000000a0     (.common:__TI_tmpnams)
                  20003760    00000080     (.common:RecvBuf)
                  200037e0    00000050     (.common:NotifyCharacteristicList)
                  20003830    00000008     (.common:Messageb)
                  20003838    00000008     (.common:parmbuf)
                  20003840    00000004     (.common:ADCflag)
                  20003844    00000004     (.common:Center)
                  20003848    00000004     (.common:I1)
                  2000384c    00000004     (.common:LPFSum)
                  20003850    00000004     (.common:LPFSum2)
                  20003854    00000004     (.common:LPFSum3)
                  20003858    00000004     (.common:Left)
                  2000385c    00000004     (.common:Messageindexb)
                  20003860    00000004     (.common:NoSOFErr)
                  20003864    00000004     (.common:Pt)
                  20003868    00000004     (.common:Pt2)
                  2000386c    00000004     (.common:Pt3)
                  20003870    00000004     (.common:Right)
                  20003874    00000004     (.common:RxFifoLost)
                  20003878    00000004     (.common:RxGetI)
                  2000387c    00000004     (.common:RxPutI)
                  20003880    00000004     (.common:Size)
                  20003884    00000004     (.common:Switch2)
                  20003888    00000004     (.common:TimeOutErr)
                  2000388c    00000004     (.common:TimerA1Task)
                  20003890    00000004     (.common:fcserr)
                  20003894    00000004     (.common:nc)
                  20003898    00000004     (.common:nl)
                  2000389c    00000004     (.common:nr)
                  200038a0    00000004     (.common:rotation)
                  200038a4    00000004     (.common:u1)
                  200038a8    00000004     (.common:u2)
                  200038ac    00000004     (.common:u3)
                  200038b0    00000004     (.common:vccstate)
                  200038b4    00000002     (.common:StartX)
                  200038b6    00000002     (.common:StartY)
                  200038b8    00000002     (.common:Switch1)

.sysmem    0    200038c0    00000400     UNINITIALIZED
                  200038c0    00000010     rtsv7M4_T_le_v4SPD16_eabi.lib : memory.c.obj (.sysmem)
                  200038d0    000003f0     --HOLE--

.data      0    20003cc0    00000318     UNINITIALIZED
                  20003cc0    000000f0     rtsv7M4_T_le_v4SPD16_eabi.lib : defs.c.obj (.data:_ftable)
                  20003db0    00000078                                   : host_device.c.obj (.data:_device)
                  20003e28    00000050                                   : host_device.c.obj (.data:_stream)
                  20003e78    00000025     AP.obj (.data:NPI_SetAdvertisementData)
                  20003e9d    00000020     AP.obj (.data:NPI_AddCharDescriptor)
                  20003ebd    0000001e     AP.obj (.data:NPI_SetAdvertisementDataJacki)
                  20003edb    0000001c     AP.obj (.data:NPI_GATTSetDeviceName)
                  20003ef7    00000001     --HOLE--
                  20003ef8    00000018     Clock.obj (.data)
                  20003f10    00000015     AP.obj (.data:NPI_GATTSetDeviceNameJacki)
                  20003f25    00000015     AP.obj (.data:NPI_ReadConfirmation)
                  20003f3a    00000014     AP.obj (.data:NPI_SendNotificationIndication)
                  20003f4e    00000002     --HOLE--
                  20003f50    00000010     rtsv7M4_T_le_v4SPD16_eabi.lib : defs.c.obj (.data)
                  20003f60    0000000e     AP.obj (.data:NPI_AddCharValue)
                  20003f6e    00000002     --HOLE--
                  20003f70    0000000c     rtsv7M4_T_le_v4SPD16_eabi.lib : exit.c.obj (.data:$O1$$)
                  20003f7c    0000000c     TA3InputCapture.obj (.data)
                  20003f88    00000009     AP.obj (.data:NPI_AddService)
                  20003f91    00000009     AP.obj (.data:NPI_CCCDUpdatedConfirmation)
                  20003f9a    00000009     AP.obj (.data:NPI_WriteConfirmation)
                  20003fa3    00000001     --HOLE--
                  20003fa4    00000008     rtsv7M4_T_le_v4SPD16_eabi.lib : _lock.c.obj (.data:$O1$$)
                  20003fac    00000008                                   : memory.c.obj (.data:$O1$$)
                  20003fb4    00000008     AP.obj (.data)
                  20003fbc    00000008     Robot_BLEmain.obj (.data)
                  20003fc4    00000004     SSD1306.obj (.data)
                  20003fc8    00000004     rtsv7M4_T_le_v4SPD16_eabi.lib : add_device.c.obj (.data)
                  20003fcc    00000004                                   : fopen.c.obj (.data)
                  20003fd0    00000004                                   : open.c.obj (.data)
                  20003fd4    00000004     system_msp432p401r.obj (.data)

.stack     0    2000fe00    00000200     UNINITIALIZED
                  2000fe00    00000004     rtsv7M4_T_le_v4SPD16_eabi.lib : boot_cortex_m.c.obj (.stack)
                  2000fe04    000001fc     --HOLE--

MODULE SUMMARY

       Module                        code    ro data   rw data
       ------                        ----    -------   -------
    ..\
       SSD1306.obj                   6040    544       2080   
       AP.obj                        4116    64        1236   
       UART0.obj                     1760    0         24     
       ADC14.obj                     1168    0         0      
       PWM.obj                       1056    0         0      
       TA3InputCapture.obj           468     0         24     
       Motor.obj                     396     0         0      
       TimerA1.obj                   168     0         8      
       IRDistance.obj                124     0         0      
       Bump.obj                      120     0         0      
    +--+-----------------------------+-------+---------+---------+
       Total:                        15416   608       3372   
                                                              
    .\
       LPF.obj                       928     0         24664  
       Robot_BLEmain.obj             1996    0         84     
       UART1.obj                     420     0         536    
       system_msp432p401r.obj        812     0         8      
       Clock.obj                     480     0         48     
       LaunchPad.obj                 244     0         0      
       startup_msp432p401r_ccs.obj   14      228       0      
       GPIO.obj                      192     0         0      
       CortexM.obj                   36      0         0      
    +--+-----------------------------+-------+---------+---------+
       Total:                        5122    228       25340  
                                                              
    E:\ti\ccs900\ccs\tools\compiler\ti-cgt-arm_18.12.1.LTS\lib\rtsv7M4_T_le_v4SPD16_eabi.lib
       defs.c.obj                    0       0         832    
       memory.c.obj                  676     0         16     
       trgmsg.c.obj                  108     0         576    
       fopen.c.obj                   528     0         8      
       host_device.c.obj             0       0         400    
       setvbuf.c.obj                 220     0         0      
       open.c.obj                    188     0         8      
       add_device.c.obj              184     0         8      
       memcpy_t2.asm.obj             156     0         0      
       memset_t2.asm.obj             122     0         0      
       fclose.c.obj                  116     0         0      
       getdevice.c.obj               116     0         0      
       hostopen.c.obj                96      0         16     
       copy_decompress_lzss.c.obj    104     0         0      
       hostlseek.c.obj               104     0         0      
       hostrename.c.obj              104     0         0      
       exit.c.obj                    76      0         24     
       close.c.obj                   92      0         0      
       hostread.c.obj                88      0         0      
       hostwrite.c.obj               88      0         0      
       fflush.c.obj                  76      0         0      
       autoinit.c.obj                68      0         0      
       hostclose.c.obj               68      0         0      
       hostunlink.c.obj              68      0         0      
       strncpy.c.obj                 54      0         0      
       boot_cortex_m.c.obj           52      0         0      
       unlink.c.obj                  44      0         0      
       write.c.obj                   40      0         0      
       strcmp.c.obj                  24      0         0      
       strchr.c.obj                  22      0         0      
       strcpy.c.obj                  20      0         0      
       strlen.c.obj                  20      0         0      
       _lock.c.obj                   2       0         16     
       copy_decompress_none.c.obj    14      0         0      
       copy_zero_init.c.obj          12      0         0      
       pre_init.c.obj                4       0         0      
    +--+-----------------------------+-------+---------+---------+
       Total:                        3754    0         1904   
                                                              
       Heap:                         0       0         2048   
       Stack:                        0       0         1024   
       Linker Generated:             0       328       0      
    +--+-----------------------------+-------+---------+---------+
       Grand Total:                  24292   1164      33688  


LINKER GENERATED COPY TABLES

__TI_cinit_table @ 00006368 records: 2, size/record: 8, table size: 16
	.data: load addr=00006230, load size=00000124 bytes, run addr=20003cc0, run size=00000318 bytes, compression=lzss
	.bss: load addr=00006360, load size=00000008 bytes, run addr=20000000, run size=000038ba bytes, compression=zero_init


LINKER GENERATED HANDLER TABLE

__TI_handler_table @ 00006354 records: 3, size/record: 4, table size: 12
	index: 0, handler: __TI_decompress_lzss
	index: 1, handler: __TI_decompress_none
	index: 2, handler: __TI_zero_init


GLOBAL SYMBOLS: SORTED ALPHABETICALLY BY Name 

address   name                           
-------   ----                           
000039f5  ADC0_InitSWTriggerCh12         
00003839  ADC0_InitSWTriggerCh14         
000038a9  ADC0_InitSWTriggerCh17_14_16   
00003a65  ADC0_InitSWTriggerCh19         
00003959  ADC0_InitSWTriggerCh21_22_23   
00003af5  ADC0_InitSWTriggerCh23         
0000373d  ADC0_InitSWTriggerCh6          
000037ad  ADC0_InitSWTriggerCh67         
00005fad  ADC14_IRQHandler               
00003a45  ADC_In12                       
00003889  ADC_In14                       
00003919  ADC_In17_14_16                 
00003ab5  ADC_In19                       
000039b5  ADC_In21_22_23                 
00003b51  ADC_In23                       
0000378d  ADC_In6                        
00003803  ADC_In67                       
20003840  ADCflag                        
00005fad  AES256_IRQHandler              
00001edd  AP_AddCharacteristic           
00002099  AP_AddNotifyCharacteristic     
00001e85  AP_AddService                  
000025ad  AP_BackgroundProcess           
00001a21  AP_EchoReceived                
000019b5  AP_EchoSendMessage             
00001e6f  AP_GetNotifyCCCD               
0000198b  AP_GetSize                     
00002481  AP_GetStatus                   
000024b9  AP_GetVersion                  
000018a5  AP_Init                        
00001c45  AP_RecvMessage                 
00001e21  AP_RecvStatus                  
00001ebd  AP_RegisterService             
0000187d  AP_Reset                       
00001aa9  AP_SendMessage                 
00001e2f  AP_SendMessageResponse         
000022c5  AP_SendNotification            
000023c5  AP_StartAdvertisement          
00002419  AP_StartAdvertisementJacki     
00002a31  BLE_Init                       
000057dd  Bump_Init                      
00005811  Bump_Read                      
00005fad  BusFault_Handler               
00002a0d  Button1                        
00002a1f  Button2                        
00005fc7  C$$EXIT                        
00005d3f  C$$IO$$                        
00005fad  COMP_E0_IRQHandler             
00005fad  COMP_E1_IRQHandler             
20003f00  CPMwait                        
00005fad  CS_IRQHandler                  
20003f7c  CaptureTask0                   
20003f80  CaptureTask1                   
20003f84  CaptureTask2                   
20003844  Center                         
00005691  CenterConvert                  
20003fb4  CharacteristicCount            
20003620  CharacteristicList             
20003ef8  ClockFrequency                 
0000480d  Clock_Delay1ms                 
000047e3  Clock_Delay1us                 
000047cf  Clock_GetFreq                  
000046b9  Clock_Init48MHz                
20003f0c  Crystalstable                  
20003fc4  CurrentX                       
20003fc6  CurrentY                       
00005fad  DMA_ERR_IRQHandler             
00005fad  DMA_INT0_IRQHandler            
00005fad  DMA_INT1_IRQHandler            
00005fad  DMA_INT2_IRQHandler            
00005fad  DMA_INT3_IRQHandler            
00005fad  DebugMon_Handler               
00005fad  Default_Handler                
00005efd  DisableInterrupts              
00005fad  EUSCIA0_IRQHandler             
00005fad  EUSCIA1_IRQHandler             
00004b95  EUSCIA2_IRQHandler             
00004b95  EUSCIA2_IRQHandler             
00005fad  EUSCIA3_IRQHandler             
00005fad  EUSCIB0_IRQHandler             
00005fad  EUSCIB1_IRQHandler             
00005fad  EUSCIB2_IRQHandler             
00005fad  EUSCIB3_IRQHandler             
00005f03  EnableInterrupts               
00005f13  EndCritical                    
00005fad  FLCTL_IRQHandler               
00005fad  FPU_IRQHandler                 
00005255  GPIO_Init                      
000061cf  HCI_EXT_ResetSystemCmd         
00005c01  HOSTclose                      
000058c9  HOSTlseek                      
00005a01  HOSTopen                       
00005abd  HOSTread                       
00005931  HOSTrename                     
00005c45  HOSTunlink                     
00005b15  HOSTwrite                      
00005fad  HardFault_Handler              
20003848  I1                             
20003f08  IFlags                         
00002b09  IRsampling                     
20003fbd  JackiBumpSensor                
20003fbc  JackiCommand                   
20003fbe  JackiSpeed                     
2000384c  LPFSum                         
20003850  LPFSum2                        
20003854  LPFSum3                        
00004101  LPF_Calc                       
000041a9  LPF_Calc2                      
0000426d  LPF_Calc3                      
00004041  LPF_Calc_old                   
000040a3  LPF_Init                       
00004155  LPF_Init2                      
0000420b  LPF_Init3                      
00003fed  LPF_Init_old                   
00004ea9  LaunchPad_Init                 
00004f19  LaunchPad_Input                
00004f33  LaunchPad_LED                  
00004f51  LaunchPad_Output               
20003858  Left                           
00005669  LeftConvert                    
000042d5  Median                         
00005fad  MemManage_Handler              
20003830  Messageb                       
2000385c  Messageindexb                  
00004d3f  Motor_Backward                 
00004c77  Motor_Forward                  
00004c11  Motor_Init                     
00004cf9  Motor_Left                     
00004cb3  Motor_Right                    
00004c63  Motor_Stop                     
00005fad  NMI_Handler                    
20003e9d  NPI_AddCharDescriptor          
20003f60  NPI_AddCharValue               
20003f88  NPI_AddService                 
20003f91  NPI_CCCDUpdatedConfirmation    
20003edb  NPI_GATTSetDeviceName          
20003f10  NPI_GATTSetDeviceNameJacki     
000061e8  NPI_GetStatus                  
000061ee  NPI_GetVersion                 
20003f25  NPI_ReadConfirmation           
000061f4  NPI_Register                   
20003f3a  NPI_SendNotificationIndication 
000061be  NPI_SetAdvertisement1          
20003e78  NPI_SetAdvertisementData       
20003ebd  NPI_SetAdvertisementDataJacki  
000061aa  NPI_StartAdvertisement         
20003f9a  NPI_WriteConfirmation          
20003860  NoSOFErr                       
20003fb8  NotifyCharacteristicCount      
200037e0  NotifyCharacteristicList       
000028bd  OutValue                       
00005fad  PCM_IRQHandler                 
00005fad  PORT1_IRQHandler               
00005fad  PORT2_IRQHandler               
00005fad  PORT3_IRQHandler               
00005fad  PORT4_IRQHandler               
00005fad  PORT5_IRQHandler               
00005fad  PORT6_IRQHandler               
00005fad  PSS_IRQHandler                 
00003cb7  PWM_Duty1                      
00003cd7  PWM_Duty2                      
00003d7b  PWM_Duty3                      
00003d9b  PWM_Duty4                      
00003bcd  PWM_Init1                      
00003c33  PWM_Init12                     
00003cf7  PWM_Init34                     
00003ee3  PWM_RobotArmDuty0              
00003f09  PWM_RobotArmDuty1              
00003f2f  PWM_RobotArmDuty2              
00003f03  PWM_RobotArmGetDuty0           
00003f29  PWM_RobotArmGetDuty1           
00003f4f  PWM_RobotArmGetDuty2           
00003dbb  PWM_RobotArmInit               
00005fad  PendSV_Handler                 
20003f04  Postwait                       
20003efc  Prewait                        
20003864  Pt                             
20003868  Pt2                            
2000386c  Pt3                            
00005fad  RTC_C_IRQHandler               
000028d1  ReadCommand                    
000028df  ReadJackiBumpSensor            
000029ed  ReadJackiSpeed                 
20003760  RecvBuf                        
00005fa1  Reset_Handler                  
20003870  Right                          
000056b9  RightConvert                   
000028f5  RunJacki                       
20003520  RxFIFO                         
20003874  RxFifoLost                     
00004ac5  RxFifo_Get                     
00004a6d  RxFifo_Init                    
00004a7f  RxFifo_Put                     
20003878  RxGetI                         
2000387c  RxPutI                         
00000549  SSD1306_Clear                  
00000509  SSD1306_ClearBuffer            
00000f65  SSD1306_Dim                    
00000e1f  SSD1306_DisplayBuffer          
00000409  SSD1306_DrawChar               
000007e1  SSD1306_DrawFastHLine          
00000a05  SSD1306_DrawFastVLine          
0000059d  SSD1306_DrawFullImage          
00000289  SSD1306_DrawPixel              
000004bd  SSD1306_DrawString             
00000e1b  SSD1306_GetBuffer              
00000d1d  SSD1306_GetPixel               
00000183  SSD1306_Init                   
00000f4f  SSD1306_InvertDisplay          
00001011  SSD1306_OutChar                
00001727  SSD1306_OutHex7                
00001375  SSD1306_OutSDec                
00001639  SSD1306_OutSFix1               
00001137  SSD1306_OutString              
00001191  SSD1306_OutUDec                
00001785  SSD1306_OutUDec16              
0000181d  SSD1306_OutUDec2               
000015ab  SSD1306_OutUFix1               
0000175d  SSD1306_OutUHex7               
00000601  SSD1306_PrintBMP               
00000f97  SSD1306_SetCursor              
000008f3  SSD1306_drawFastHLineInternal  
00000b1d  SSD1306_drawFastVLineInternal  
00000f05  SSD1306_startscrolldiagleft    
00000ec1  SSD1306_startscrolldiagright   
00000e8b  SSD1306_startscrollleft        
00000e59  SSD1306_startscrollright       
00000f45  SSD1306_stopscroll             
00005fad  SVC_Handler                    
20003880  Size                           
00005f09  StartCritical                  
200038b4  StartX                         
200038b6  StartY                         
200038b8  Switch1                        
20003884  Switch2                        
00005fad  SysTick_Handler                
20003fd4  SystemCoreClock                
0000438d  SystemCoreClockUpdate          
00004601  SystemInit                     
00005fad  T32_INT1_IRQHandler            
00005fad  T32_INT2_IRQHandler            
00005fad  T32_INTC_IRQHandler            
00005fad  TA0_0_IRQHandler               
00005fad  TA0_N_IRQHandler               
000054fb  TA1_0_IRQHandler               
000054fb  TA1_0_IRQHandler               
00005fad  TA1_N_IRQHandler               
00005fad  TA2_0_IRQHandler               
00005fad  TA2_N_IRQHandler               
00004925  TA3_0_IRQHandler               
00004925  TA3_0_IRQHandler               
0000493f  TA3_N_IRQHandler               
0000493f  TA3_N_IRQHandler               
00002891  TestMotor                      
20003888  TimeOutErr                     
2000388c  TimerA1Task                    
00005489  TimerA1_Init                   
000054e7  TimerA1_Stop                   
000048a5  TimerA3Capture_Init01          
0000497f  TimerA3Capture_Init02          
000030a3  UART0_InChar                   
0000354d  UART0_InString                 
000030ed  UART0_InUDec                   
00003401  UART0_InUHex                   
0000305d  UART0_Init                     
000036af  UART0_Initprintf               
000030b3  UART0_OutChar                  
000031a1  UART0_OutSDec                  
000030cf  UART0_OutString                
00003171  UART0_OutUDec                  
00003315  UART0_OutUDec4                 
0000335d  UART0_OutUDec5                 
0000338f  UART0_OutUFix1                 
000033b7  UART0_OutUFix2                 
000034c5  UART0_OutUHex                  
00003531  UART0_OutUHex2                 
00004bc9  UART1_FinishOutput             
00004b67  UART1_InChar                   
00004afb  UART1_InStatus                 
00004b0b  UART1_Init                     
00004b79  UART1_OutChar                  
00004bab  UART1_OutString                
00005fad  UsageFault_Handler             
4000480c  WDTCTL_SYM                     
00005fad  WDT_A_IRQHandler               
00005f1b  WaitForInterrupt               
000029db  WriteCommand                   
000029fb  WriteJackiSpeed                
20003400  __CIOBUF_                      
20010000  __STACK_END                    
00000200  __STACK_SIZE                   
00000400  __SYSMEM_SIZE                  
00006368  __TI_CINIT_Base                
00006378  __TI_CINIT_Limit               
00006354  __TI_Handler_Table_Base        
00006360  __TI_Handler_Table_Limit       
00005c89  __TI_auto_init_nobinit_nopinit 
00005d81  __TI_cleanup                   
20003f70  __TI_cleanup_ptr               
00005855  __TI_closefile                 
00005999  __TI_decompress_lzss           
00005f93  __TI_decompress_none           
00005b6d  __TI_doflush                   
20003f74  __TI_dtors_ptr                 
20003f78  __TI_enable_exit_profile_output
20003f50  __TI_ft_end                    
ffffffff  __TI_pprof_out_hndl            
ffffffff  __TI_prof_data_size            
ffffffff  __TI_prof_data_start           
00005db5  __TI_readmsg                   
00000000  __TI_static_base__             
200036c0  __TI_tmpnams                   
00005d11  __TI_writemsg                  
00005faf  __TI_zero_init                 
00005761  __aeabi_memclr                 
00005761  __aeabi_memclr4                
00005761  __aeabi_memclr8                
000055cd  __aeabi_memcpy                 
000055cd  __aeabi_memcpy4                
000055cd  __aeabi_memcpy8                
00005763  __aeabi_memset                 
00005763  __aeabi_memset4                
00005763  __aeabi_memset8                
20003f5c  __aeabi_stderr                 
20003f54  __aeabi_stdin                  
20003f58  __aeabi_stdout                 
ffffffff  __binit__                      
ffffffff  __c_args__                     
UNDEFED   __mpu_init                     
2000fe00  __stack                        
00005de9  _c_int00_noargs                
20003db0  _device                        
20003cc0  _ftable                        
20003fa4  _lock                          
000057db  _nop                           
20003e28  _stream                        
200038c0  _sys_memory                    
UNDEFED   _system_post_cinit             
00005fc3  _system_pre_init               
20003fa8  _unlock                        
00005fc7  abort                          
000053d1  add_device                     
00004f9d  aligned_alloc                  
ffffffff  binit                          
20003000  buffer                         
00005a61  close                          
000047d5  delay                          
00005bb9  exit                           
20003890  fcserr                         
000035e1  ferror                         
000035c7  fgetc                          
00005e51  finddevice                     
00005531  fopen                          
00005091  free                           
00005e1d  freopen                        
00005ccd  getdevice                      
00000000  interruptVectors               
00002cb1  main                           
00005fbb  malloc                         
00004f9d  memalign                       
000055cd  memcpy                         
00005769  memset                         
20003894  nc                             
20003898  nl                             
2000389c  nr                             
00005315  open                           
00003509  outnibble                      
20003838  parmbuf                        
00005e81  remove                         
200038a0  rotation                       
00005179  setvbuf                        
0000010f  ssd1306_Testcommandwrite       
0000013b  ssd1306_command                
0000014b  ssd1306_command1               
0000015b  ssd1306_commandList            
00005f55  strchr                         
00005f3d  strcmp                         
00005f6b  strcpy                         
00005f7f  strlen                         
00005d49  strncpy                        
00004899  ta3dummy                       
20003fc0  time                           
200038a4  u1                             
200038a8  u2                             
200038ac  u3                             
00003607  uart_close                     
00003685  uart_lseek                     
000035f7  uart_open                      
00003613  uart_read                      
000036a1  uart_rename                    
00003695  uart_unlink                    
00003643  uart_write                     
00005e81  unlink                         
200038b0  vccstate                       
00005ed5  write                          
20000000  x                              
20001000  x2                             
20002000  x3                             


GLOBAL SYMBOLS: SORTED BY Symbol Address 

address   name                           
-------   ----                           
00000000  __TI_static_base__             
00000000  interruptVectors               
0000010f  ssd1306_Testcommandwrite       
0000013b  ssd1306_command                
0000014b  ssd1306_command1               
0000015b  ssd1306_commandList            
00000183  SSD1306_Init                   
00000200  __STACK_SIZE                   
00000289  SSD1306_DrawPixel              
00000400  __SYSMEM_SIZE                  
00000409  SSD1306_DrawChar               
000004bd  SSD1306_DrawString             
00000509  SSD1306_ClearBuffer            
00000549  SSD1306_Clear                  
0000059d  SSD1306_DrawFullImage          
00000601  SSD1306_PrintBMP               
000007e1  SSD1306_DrawFastHLine          
000008f3  SSD1306_drawFastHLineInternal  
00000a05  SSD1306_DrawFastVLine          
00000b1d  SSD1306_drawFastVLineInternal  
00000d1d  SSD1306_GetPixel               
00000e1b  SSD1306_GetBuffer              
00000e1f  SSD1306_DisplayBuffer          
00000e59  SSD1306_startscrollright       
00000e8b  SSD1306_startscrollleft        
00000ec1  SSD1306_startscrolldiagright   
00000f05  SSD1306_startscrolldiagleft    
00000f45  SSD1306_stopscroll             
00000f4f  SSD1306_InvertDisplay          
00000f65  SSD1306_Dim                    
00000f97  SSD1306_SetCursor              
00001011  SSD1306_OutChar                
00001137  SSD1306_OutString              
00001191  SSD1306_OutUDec                
00001375  SSD1306_OutSDec                
000015ab  SSD1306_OutUFix1               
00001639  SSD1306_OutSFix1               
00001727  SSD1306_OutHex7                
0000175d  SSD1306_OutUHex7               
00001785  SSD1306_OutUDec16              
0000181d  SSD1306_OutUDec2               
0000187d  AP_Reset                       
000018a5  AP_Init                        
0000198b  AP_GetSize                     
000019b5  AP_EchoSendMessage             
00001a21  AP_EchoReceived                
00001aa9  AP_SendMessage                 
00001c45  AP_RecvMessage                 
00001e21  AP_RecvStatus                  
00001e2f  AP_SendMessageResponse         
00001e6f  AP_GetNotifyCCCD               
00001e85  AP_AddService                  
00001ebd  AP_RegisterService             
00001edd  AP_AddCharacteristic           
00002099  AP_AddNotifyCharacteristic     
000022c5  AP_SendNotification            
000023c5  AP_StartAdvertisement          
00002419  AP_StartAdvertisementJacki     
00002481  AP_GetStatus                   
000024b9  AP_GetVersion                  
000025ad  AP_BackgroundProcess           
00002891  TestMotor                      
000028bd  OutValue                       
000028d1  ReadCommand                    
000028df  ReadJackiBumpSensor            
000028f5  RunJacki                       
000029db  WriteCommand                   
000029ed  ReadJackiSpeed                 
000029fb  WriteJackiSpeed                
00002a0d  Button1                        
00002a1f  Button2                        
00002a31  BLE_Init                       
00002b09  IRsampling                     
00002cb1  main                           
0000305d  UART0_Init                     
000030a3  UART0_InChar                   
000030b3  UART0_OutChar                  
000030cf  UART0_OutString                
000030ed  UART0_InUDec                   
00003171  UART0_OutUDec                  
000031a1  UART0_OutSDec                  
00003315  UART0_OutUDec4                 
0000335d  UART0_OutUDec5                 
0000338f  UART0_OutUFix1                 
000033b7  UART0_OutUFix2                 
00003401  UART0_InUHex                   
000034c5  UART0_OutUHex                  
00003509  outnibble                      
00003531  UART0_OutUHex2                 
0000354d  UART0_InString                 
000035c7  fgetc                          
000035e1  ferror                         
000035f7  uart_open                      
00003607  uart_close                     
00003613  uart_read                      
00003643  uart_write                     
00003685  uart_lseek                     
00003695  uart_unlink                    
000036a1  uart_rename                    
000036af  UART0_Initprintf               
0000373d  ADC0_InitSWTriggerCh6          
0000378d  ADC_In6                        
000037ad  ADC0_InitSWTriggerCh67         
00003803  ADC_In67                       
00003839  ADC0_InitSWTriggerCh14         
00003889  ADC_In14                       
000038a9  ADC0_InitSWTriggerCh17_14_16   
00003919  ADC_In17_14_16                 
00003959  ADC0_InitSWTriggerCh21_22_23   
000039b5  ADC_In21_22_23                 
000039f5  ADC0_InitSWTriggerCh12         
00003a45  ADC_In12                       
00003a65  ADC0_InitSWTriggerCh19         
00003ab5  ADC_In19                       
00003af5  ADC0_InitSWTriggerCh23         
00003b51  ADC_In23                       
00003bcd  PWM_Init1                      
00003c33  PWM_Init12                     
00003cb7  PWM_Duty1                      
00003cd7  PWM_Duty2                      
00003cf7  PWM_Init34                     
00003d7b  PWM_Duty3                      
00003d9b  PWM_Duty4                      
00003dbb  PWM_RobotArmInit               
00003ee3  PWM_RobotArmDuty0              
00003f03  PWM_RobotArmGetDuty0           
00003f09  PWM_RobotArmDuty1              
00003f29  PWM_RobotArmGetDuty1           
00003f2f  PWM_RobotArmDuty2              
00003f4f  PWM_RobotArmGetDuty2           
00003fed  LPF_Init_old                   
00004041  LPF_Calc_old                   
000040a3  LPF_Init                       
00004101  LPF_Calc                       
00004155  LPF_Init2                      
000041a9  LPF_Calc2                      
0000420b  LPF_Init3                      
0000426d  LPF_Calc3                      
000042d5  Median                         
0000438d  SystemCoreClockUpdate          
00004601  SystemInit                     
000046b9  Clock_Init48MHz                
000047cf  Clock_GetFreq                  
000047d5  delay                          
000047e3  Clock_Delay1us                 
0000480d  Clock_Delay1ms                 
00004899  ta3dummy                       
000048a5  TimerA3Capture_Init01          
00004925  TA3_0_IRQHandler               
00004925  TA3_0_IRQHandler               
0000493f  TA3_N_IRQHandler               
0000493f  TA3_N_IRQHandler               
0000497f  TimerA3Capture_Init02          
00004a6d  RxFifo_Init                    
00004a7f  RxFifo_Put                     
00004ac5  RxFifo_Get                     
00004afb  UART1_InStatus                 
00004b0b  UART1_Init                     
00004b67  UART1_InChar                   
00004b79  UART1_OutChar                  
00004b95  EUSCIA2_IRQHandler             
00004b95  EUSCIA2_IRQHandler             
00004bab  UART1_OutString                
00004bc9  UART1_FinishOutput             
00004c11  Motor_Init                     
00004c63  Motor_Stop                     
00004c77  Motor_Forward                  
00004cb3  Motor_Right                    
00004cf9  Motor_Left                     
00004d3f  Motor_Backward                 
00004ea9  LaunchPad_Init                 
00004f19  LaunchPad_Input                
00004f33  LaunchPad_LED                  
00004f51  LaunchPad_Output               
00004f9d  aligned_alloc                  
00004f9d  memalign                       
00005091  free                           
00005179  setvbuf                        
00005255  GPIO_Init                      
00005315  open                           
000053d1  add_device                     
00005489  TimerA1_Init                   
000054e7  TimerA1_Stop                   
000054fb  TA1_0_IRQHandler               
000054fb  TA1_0_IRQHandler               
00005531  fopen                          
000055cd  __aeabi_memcpy                 
000055cd  __aeabi_memcpy4                
000055cd  __aeabi_memcpy8                
000055cd  memcpy                         
00005669  LeftConvert                    
00005691  CenterConvert                  
000056b9  RightConvert                   
00005761  __aeabi_memclr                 
00005761  __aeabi_memclr4                
00005761  __aeabi_memclr8                
00005763  __aeabi_memset                 
00005763  __aeabi_memset4                
00005763  __aeabi_memset8                
00005769  memset                         
000057db  _nop                           
000057dd  Bump_Init                      
00005811  Bump_Read                      
00005855  __TI_closefile                 
000058c9  HOSTlseek                      
00005931  HOSTrename                     
00005999  __TI_decompress_lzss           
00005a01  HOSTopen                       
00005a61  close                          
00005abd  HOSTread                       
00005b15  HOSTwrite                      
00005b6d  __TI_doflush                   
00005bb9  exit                           
00005c01  HOSTclose                      
00005c45  HOSTunlink                     
00005c89  __TI_auto_init_nobinit_nopinit 
00005ccd  getdevice                      
00005d11  __TI_writemsg                  
00005d3f  C$$IO$$                        
00005d49  strncpy                        
00005d81  __TI_cleanup                   
00005db5  __TI_readmsg                   
00005de9  _c_int00_noargs                
00005e1d  freopen                        
00005e51  finddevice                     
00005e81  remove                         
00005e81  unlink                         
00005ed5  write                          
00005efd  DisableInterrupts              
00005f03  EnableInterrupts               
00005f09  StartCritical                  
00005f13  EndCritical                    
00005f1b  WaitForInterrupt               
00005f3d  strcmp                         
00005f55  strchr                         
00005f6b  strcpy                         
00005f7f  strlen                         
00005f93  __TI_decompress_none           
00005fa1  Reset_Handler                  
00005fad  ADC14_IRQHandler               
00005fad  AES256_IRQHandler              
00005fad  BusFault_Handler               
00005fad  COMP_E0_IRQHandler             
00005fad  COMP_E1_IRQHandler             
00005fad  CS_IRQHandler                  
00005fad  DMA_ERR_IRQHandler             
00005fad  DMA_INT0_IRQHandler            
00005fad  DMA_INT1_IRQHandler            
00005fad  DMA_INT2_IRQHandler            
00005fad  DMA_INT3_IRQHandler            
00005fad  DebugMon_Handler               
00005fad  Default_Handler                
00005fad  EUSCIA0_IRQHandler             
00005fad  EUSCIA1_IRQHandler             
00005fad  EUSCIA3_IRQHandler             
00005fad  EUSCIB0_IRQHandler             
00005fad  EUSCIB1_IRQHandler             
00005fad  EUSCIB2_IRQHandler             
00005fad  EUSCIB3_IRQHandler             
00005fad  FLCTL_IRQHandler               
00005fad  FPU_IRQHandler                 
00005fad  HardFault_Handler              
00005fad  MemManage_Handler              
00005fad  NMI_Handler                    
00005fad  PCM_IRQHandler                 
00005fad  PORT1_IRQHandler               
00005fad  PORT2_IRQHandler               
00005fad  PORT3_IRQHandler               
00005fad  PORT4_IRQHandler               
00005fad  PORT5_IRQHandler               
00005fad  PORT6_IRQHandler               
00005fad  PSS_IRQHandler                 
00005fad  PendSV_Handler                 
00005fad  RTC_C_IRQHandler               
00005fad  SVC_Handler                    
00005fad  SysTick_Handler                
00005fad  T32_INT1_IRQHandler            
00005fad  T32_INT2_IRQHandler            
00005fad  T32_INTC_IRQHandler            
00005fad  TA0_0_IRQHandler               
00005fad  TA0_N_IRQHandler               
00005fad  TA1_N_IRQHandler               
00005fad  TA2_0_IRQHandler               
00005fad  TA2_N_IRQHandler               
00005fad  UsageFault_Handler             
00005fad  WDT_A_IRQHandler               
00005faf  __TI_zero_init                 
00005fbb  malloc                         
00005fc3  _system_pre_init               
00005fc7  C$$EXIT                        
00005fc7  abort                          
000061aa  NPI_StartAdvertisement         
000061be  NPI_SetAdvertisement1          
000061cf  HCI_EXT_ResetSystemCmd         
000061e8  NPI_GetStatus                  
000061ee  NPI_GetVersion                 
000061f4  NPI_Register                   
00006354  __TI_Handler_Table_Base        
00006360  __TI_Handler_Table_Limit       
00006368  __TI_CINIT_Base                
00006378  __TI_CINIT_Limit               
20000000  x                              
20001000  x2                             
20002000  x3                             
20003000  buffer                         
20003400  __CIOBUF_                      
20003520  RxFIFO                         
20003620  CharacteristicList             
200036c0  __TI_tmpnams                   
20003760  RecvBuf                        
200037e0  NotifyCharacteristicList       
20003830  Messageb                       
20003838  parmbuf                        
20003840  ADCflag                        
20003844  Center                         
20003848  I1                             
2000384c  LPFSum                         
20003850  LPFSum2                        
20003854  LPFSum3                        
20003858  Left                           
2000385c  Messageindexb                  
20003860  NoSOFErr                       
20003864  Pt                             
20003868  Pt2                            
2000386c  Pt3                            
20003870  Right                          
20003874  RxFifoLost                     
20003878  RxGetI                         
2000387c  RxPutI                         
20003880  Size                           
20003884  Switch2                        
20003888  TimeOutErr                     
2000388c  TimerA1Task                    
20003890  fcserr                         
20003894  nc                             
20003898  nl                             
2000389c  nr                             
200038a0  rotation                       
200038a4  u1                             
200038a8  u2                             
200038ac  u3                             
200038b0  vccstate                       
200038b4  StartX                         
200038b6  StartY                         
200038b8  Switch1                        
200038c0  _sys_memory                    
20003cc0  _ftable                        
20003db0  _device                        
20003e28  _stream                        
20003e78  NPI_SetAdvertisementData       
20003e9d  NPI_AddCharDescriptor          
20003ebd  NPI_SetAdvertisementDataJacki  
20003edb  NPI_GATTSetDeviceName          
20003ef8  ClockFrequency                 
20003efc  Prewait                        
20003f00  CPMwait                        
20003f04  Postwait                       
20003f08  IFlags                         
20003f0c  Crystalstable                  
20003f10  NPI_GATTSetDeviceNameJacki     
20003f25  NPI_ReadConfirmation           
20003f3a  NPI_SendNotificationIndication 
20003f50  __TI_ft_end                    
20003f54  __aeabi_stdin                  
20003f58  __aeabi_stdout                 
20003f5c  __aeabi_stderr                 
20003f60  NPI_AddCharValue               
20003f70  __TI_cleanup_ptr               
20003f74  __TI_dtors_ptr                 
20003f78  __TI_enable_exit_profile_output
20003f7c  CaptureTask0                   
20003f80  CaptureTask1                   
20003f84  CaptureTask2                   
20003f88  NPI_AddService                 
20003f91  NPI_CCCDUpdatedConfirmation    
20003f9a  NPI_WriteConfirmation          
20003fa4  _lock                          
20003fa8  _unlock                        
20003fb4  CharacteristicCount            
20003fb8  NotifyCharacteristicCount      
20003fbc  JackiCommand                   
20003fbd  JackiBumpSensor                
20003fbe  JackiSpeed                     
20003fc0  time                           
20003fc4  CurrentX                       
20003fc6  CurrentY                       
20003fd4  SystemCoreClock                
2000fe00  __stack                        
20010000  __STACK_END                    
4000480c  WDTCTL_SYM                     
ffffffff  __TI_pprof_out_hndl            
ffffffff  __TI_prof_data_size            
ffffffff  __TI_prof_data_start           
ffffffff  __binit__                      
ffffffff  __c_args__                     
ffffffff  binit                          
UNDEFED   __mpu_init                     
UNDEFED   _system_post_cinit             

[398 symbols]
