******************************************************************************
                  TI ARM Linker PC v20.2.1                     
******************************************************************************
>> Linked Tue Sep 29 18:25:52 2020

OUTPUT FILE NAME:   <Lab09_SysTick.out>
ENTRY POINT SYMBOL: "_c_int00_noargs"  address: 00001105


MEMORY CONFIGURATION

         name            origin    length      used     unused   attr    fill
----------------------  --------  ---------  --------  --------  ----  --------
  MAIN                  00000000   00040000  00001364  0003ec9c  R  X
  INFO                  00200000   00004000  00000000  00004000  R  X
  SRAM_CODE             01000000   00010000  0000022d  0000fdd3  RW X
  SRAM_DATA             20000000   00010000  0000022d  0000fdd3  RW  


SEGMENT ALLOCATION MAP

run origin  load origin   length   init length attrs members
----------  ----------- ---------- ----------- ----- -------
00000000    00000000    00001368   00001368    r-x
  00000000    00000000    000000e4   000000e4    r-- .intvecs
  000000e4    000000e4    000010b8   000010b8    r-x .text
  0000119c    0000119c    00000190   00000190    r-- .const
  00001330    00001330    00000038   00000038    r-- .cinit
20000000    20000000    0000002d   00000000    rw-
  20000000    20000000    00000028   00000000    rw- .data
  20000028    20000028    00000005   00000000    rw- .bss
2000fe00    2000fe00    00000200   00000000    rw-
  2000fe00    2000fe00    00000200   00000000    rw- .stack


SECTION ALLOCATION MAP

 output                                  attributes/
section   page    origin      length       input sections
--------  ----  ----------  ----------   ----------------
.intvecs   0    00000000    000000e4     
                  00000000    000000e4     startup_msp432p401r_ccs.obj (.intvecs:retain)

.text      0    000000e4    000010b8     
                  000000e4    000006c8     TExaS.obj (.text)
                  000007ac    0000032c     system_msp432p401r.obj (.text)
                  00000ad8    000001e0     Clock.obj (.text)
                  00000cb8    000001a4     Lab09_SysTickmain.obj (.text)
                  00000e5c    000000f4     LaunchPad.obj (.text)
                  00000f50    0000009c     rtsv7M4_T_le_v4SPD16_eabi.lib : memcpy_t2.asm.obj (.text)
                  00000fec    0000006c     SysTick.obj (.text)
                  00001058    00000068     rtsv7M4_T_le_v4SPD16_eabi.lib : copy_decompress_lzss.c.obj (.text:decompress:lzss:__TI_decompress_lzss)
                  000010c0    00000044                                   : autoinit.c.obj (.text:__TI_auto_init_nobinit_nopinit:__TI_auto_init_nobinit_nopinit)
                  00001104    00000034                                   : boot_cortex_m.c.obj (.text:_c_int00_noargs:_c_int00_noargs)
                  00001138    00000024     CortexM.obj (.text)
                  0000115c    0000001c     rtsv7M4_T_le_v4SPD16_eabi.lib : copy_zero_init.c.obj (.text:decompress:ZI:__TI_zero_init_nomemset:__TI_zero_init_nomemset)
                  00001178    0000000e                                   : copy_decompress_none.c.obj (.text:decompress:none:__TI_decompress_none)
                  00001186    0000000e     startup_msp432p401r_ccs.obj (.text)
                  00001194    00000004     rtsv7M4_T_le_v4SPD16_eabi.lib : pre_init.c.obj (.text:_system_pre_init)
                  00001198    00000004                                   : exit.c.obj (.text:abort:abort)

.const     0    0000119c    00000190     
                  0000119c    00000190     Lab09_SysTickmain.obj (.const:PulseBuf)

.cinit     0    00001330    00000038     
                  00001330    0000000d     (.cinit..data.load) [load image, compression = lzss]
                  0000133d    00000003     --HOLE-- [fill = 0]
                  00001340    0000000c     (__TI_handler_table)
                  0000134c    00000004     --HOLE-- [fill = 0]
                  00001350    00000008     (.cinit..bss.load) [load image, compression = zero_init]
                  00001358    00000010     (__TI_cinit_table)

.init_array 
*          0    00000000    00000000     UNINITIALIZED

.binit     0    00000000    00000000     

.data      0    20000000    00000028     UNINITIALIZED
                  20000000    00000018     Clock.obj (.data)
                  20000018    0000000c     TExaS.obj (.data)
                  20000024    00000004     system_msp432p401r.obj (.data)

.bss       0    20000028    00000005     UNINITIALIZED
                  20000028    00000004     (.common:PeriodicTask2)
                  2000002c    00000001     (.common:LogicData)

.stack     0    2000fe00    00000200     UNINITIALIZED
                  2000fe00    00000004     rtsv7M4_T_le_v4SPD16_eabi.lib : boot_cortex_m.c.obj (.stack)
                  2000fe04    000001fc     --HOLE--

__llvm_prf_cnts 
*          0    20000000    00000000     UNINITIALIZED

MODULE SUMMARY

       Module                        code   ro data   rw data
       ------                        ----   -------   -------
    .\
       TExaS.obj                     1736   0         34     
       Lab09_SysTickmain.obj         420    400       0      
       system_msp432p401r.obj        812    0         8      
       Clock.obj                     480    0         48     
       LaunchPad.obj                 244    0         0      
       startup_msp432p401r_ccs.obj   14     228       0      
       SysTick.obj                   108    0         0      
       CortexM.obj                   36     0         0      
    +--+-----------------------------+------+---------+---------+
       Total:                        3850   628       90     
                                                             
    C:\ti\ccs1010\ccs\tools\compiler\ti-cgt-arm_20.2.1.LTS\lib\rtsv7M4_T_le_v4SPD16_eabi.lib
       memcpy_t2.asm.obj             156    0         0      
       copy_decompress_lzss.c.obj    104    0         0      
       autoinit.c.obj                68     0         0      
       boot_cortex_m.c.obj           52     0         0      
       copy_zero_init.c.obj          28     0         0      
       copy_decompress_none.c.obj    14     0         0      
       exit.c.obj                    4      0         0      
       pre_init.c.obj                4      0         0      
    +--+-----------------------------+------+---------+---------+
       Total:                        430    0         0      
                                                             
       Stack:                        0      0         1024   
       Linker Generated:             0      49        0      
    +--+-----------------------------+------+---------+---------+
       Grand Total:                  4280   677       1114   


LINKER GENERATED COPY TABLES

__TI_cinit_table @ 00001358 records: 2, size/record: 8, table size: 16
	.data: load addr=00001330, load size=0000000d bytes, run addr=20000000, run size=00000028 bytes, compression=lzss
	.bss: load addr=00001350, load size=00000008 bytes, run addr=20000028, run size=00000005 bytes, compression=zero_init


LINKER GENERATED HANDLER TABLE

__TI_handler_table @ 00001340 records: 3, size/record: 4, table size: 12
	index: 0, handler: __TI_decompress_lzss
	index: 1, handler: __TI_decompress_none
	index: 2, handler: __TI_zero_init


GLOBAL SYMBOLS: SORTED ALPHABETICALLY BY Name 

address   name                                   
-------   ----                                   
00001193  ADC14_IRQHandler                       
000004f1  ADC_Init                               
00001193  AES256_IRQHandler                      
00001193  BusFault_Handler                       
00001199  C$$EXIT                                
00001193  COMP_E0_IRQHandler                     
00001193  COMP_E1_IRQHandler                     
20000008  CPMwait                                
00001193  CS_IRQHandler                          
20000000  ClockFrequency                         
00000c2d  Clock_Delay1ms                         
00000c03  Clock_Delay1us                         
00000bef  Clock_GetFreq                          
00000ad9  Clock_Init48MHz                        
20000014  Crystalstable                          
00001193  DMA_ERR_IRQHandler                     
00001193  DMA_INT0_IRQHandler                    
00001193  DMA_INT1_IRQHandler                    
00001193  DMA_INT2_IRQHandler                    
00001193  DMA_INT3_IRQHandler                    
00001193  DebugMon_Handler                       
00001193  Default_Handler                        
00001139  DisableInterrupts                      
00001193  EUSCIA0_IRQHandler                     
00001193  EUSCIA1_IRQHandler                     
00001193  EUSCIA2_IRQHandler                     
00001193  EUSCIA3_IRQHandler                     
00001193  EUSCIB0_IRQHandler                     
00001193  EUSCIB1_IRQHandler                     
00001193  EUSCIB2_IRQHandler                     
00001193  EUSCIB3_IRQHandler                     
0000113f  EnableInterrupts                       
0000114f  EndCritical                            
00001193  FLCTL_IRQHandler                       
00001193  FPU_IRQHandler                         
00001193  HardFault_Handler                      
20000010  IFlags                                 
00000e5d  LaunchPad_Init                         
00000ecd  LaunchPad_Input                        
00000ee7  LaunchPad_LED                          
00000f05  LaunchPad_Output                       
000000e5  LogicAnalyzer                          
000000ef  LogicAnalyzer_P1                       
000001c5  LogicAnalyzer_P10                      
000000fd  LogicAnalyzer_P2                       
000001d3  LogicAnalyzer_P27_P26_P82_P92_P104_P105
0000010b  LogicAnalyzer_P2_7654                  
0000011b  LogicAnalyzer_P3                       
00000129  LogicAnalyzer_P4                       
00000147  LogicAnalyzer_P4_765320                
00000137  LogicAnalyzer_P4_765432                
0000017f  LogicAnalyzer_P5                       
0000020b  LogicAnalyzer_P55_P54_P27_P26_P37_P36  
0000018d  LogicAnalyzer_P6                       
0000019b  LogicAnalyzer_P7                       
000001a9  LogicAnalyzer_P8                       
000001b7  LogicAnalyzer_P9                       
2000002c  LogicData                              
00001193  MemManage_Handler                      
00001193  NMI_Handler                            
00001193  PCM_IRQHandler                         
00001193  PORT1_IRQHandler                       
00001193  PORT2_IRQHandler                       
00001193  PORT3_IRQHandler                       
00001193  PORT4_IRQHandler                       
00001193  PORT5_IRQHandler                       
00001193  PORT6_IRQHandler                       
00001193  PSS_IRQHandler                         
00001193  PendSV_Handler                         
20000028  PeriodicTask2                          
000002b9  PeriodicTask2_Init                     
00000333  PeriodicTask2_Stop                     
2000000c  Postwait                               
20000004  Prewait                                
00000cdf  Program9_1                             
00000d19  Program9_2                             
00000d79  Program9_3                             
0000119c  PulseBuf                               
00001193  RTC_C_IRQHandler                       
00001187  Reset_Handler                          
00001193  SVC_Handler                            
00000235  Scope                                  
00001145  StartCritical                          
00001193  SysTick_Handler                        
00000fed  SysTick_Init                           
00000ffd  SysTick_Wait                           
00001023  SysTick_Wait10ms                       
00000cb9  SysTick_Wait1us                        
20000024  SystemCoreClock                        
000007ad  SystemCoreClockUpdate                  
00000a21  SystemInit                             
00000323  T32_INT1_IRQHandler                    
00000323  T32_INT1_IRQHandler                    
00001193  T32_INT2_IRQHandler                    
00001193  T32_INTC_IRQHandler                    
00001193  TA0_0_IRQHandler                       
00001193  TA0_N_IRQHandler                       
00001193  TA1_0_IRQHandler                       
00001193  TA1_N_IRQHandler                       
00001193  TA2_0_IRQHandler                       
00001193  TA2_N_IRQHandler                       
00001193  TA3_0_IRQHandler                       
00001193  TA3_N_IRQHandler                       
00000485  TExaS_Clear0                           
00000491  TExaS_Clear1                           
000004a5  TExaS_Clear2                           
000004b1  TExaS_Clear3                           
000004bd  TExaS_Clear4                           
000004bf  TExaS_Clear5                           
000004cb  TExaS_Clear6                           
000005b5  TExaS_Init                             
2000001c  TExaS_ScopeErrConflict                 
20000018  TExaS_ScopeErrLostData                 
20000020  TExaS_ScopeWrnReconfig                 
00000413  TExaS_Set                              
0000042b  TExaS_Set0                             
00000437  TExaS_Set1                             
00000443  TExaS_Set2                             
0000044f  TExaS_Set3                             
0000045b  TExaS_Set4                             
0000045d  TExaS_Set5                             
00000475  TExaS_Set6                             
00000741  TExaS_Stop                             
000003c9  TExaS_Task0                            
000003d5  TExaS_Task1                            
000003e1  TExaS_Task2                            
000003ed  TExaS_Task3                            
000003f9  TExaS_Task4                            
000003fb  TExaS_Task5                            
00000407  TExaS_Task6                            
0000039d  UART_InChar                            
00000343  UART_Init                              
000003ad  UART_OutChar                           
00001193  UsageFault_Handler                     
4000480c  WDTCTL_SYM                             
00001193  WDT_A_IRQHandler                       
00001157  WaitForInterrupt                       
20010000  __STACK_END                            
00000200  __STACK_SIZE                           
00001358  __TI_CINIT_Base                        
00001368  __TI_CINIT_Limit                       
00001340  __TI_Handler_Table_Base                
0000134c  __TI_Handler_Table_Limit               
000010c1  __TI_auto_init_nobinit_nopinit         
00001059  __TI_decompress_lzss                   
00001179  __TI_decompress_none                   
ffffffff  __TI_pprof_out_hndl                    
ffffffff  __TI_prof_data_size                    
ffffffff  __TI_prof_data_start                   
00000000  __TI_static_base__                     
0000115d  __TI_zero_init_nomemset                
00000f51  __aeabi_memcpy                         
00000f51  __aeabi_memcpy4                        
00000f51  __aeabi_memcpy8                        
ffffffff  __binit__                              
ffffffff  __c_args__                             
UNDEFED   __mpu_init                             
2000fe00  __stack                                
20000000  __start___llvm_prf_cnts                
20000000  __stop___llvm_prf_cnts                 
00001105  _c_int00_noargs                        
UNDEFED   _system_post_cinit                     
00001195  _system_pre_init                       
00001199  abort                                  
ffffffff  binit                                  
00000bf5  delay                                  
00000000  interruptVectors                       
00000e2b  main                                   
00000f51  memcpy                                 


GLOBAL SYMBOLS: SORTED BY Symbol Address 

address   name                                   
-------   ----                                   
00000000  __TI_static_base__                     
00000000  interruptVectors                       
000000e5  LogicAnalyzer                          
000000ef  LogicAnalyzer_P1                       
000000fd  LogicAnalyzer_P2                       
0000010b  LogicAnalyzer_P2_7654                  
0000011b  LogicAnalyzer_P3                       
00000129  LogicAnalyzer_P4                       
00000137  LogicAnalyzer_P4_765432                
00000147  LogicAnalyzer_P4_765320                
0000017f  LogicAnalyzer_P5                       
0000018d  LogicAnalyzer_P6                       
0000019b  LogicAnalyzer_P7                       
000001a9  LogicAnalyzer_P8                       
000001b7  LogicAnalyzer_P9                       
000001c5  LogicAnalyzer_P10                      
000001d3  LogicAnalyzer_P27_P26_P82_P92_P104_P105
00000200  __STACK_SIZE                           
0000020b  LogicAnalyzer_P55_P54_P27_P26_P37_P36  
00000235  Scope                                  
000002b9  PeriodicTask2_Init                     
00000323  T32_INT1_IRQHandler                    
00000323  T32_INT1_IRQHandler                    
00000333  PeriodicTask2_Stop                     
00000343  UART_Init                              
0000039d  UART_InChar                            
000003ad  UART_OutChar                           
000003c9  TExaS_Task0                            
000003d5  TExaS_Task1                            
000003e1  TExaS_Task2                            
000003ed  TExaS_Task3                            
000003f9  TExaS_Task4                            
000003fb  TExaS_Task5                            
00000407  TExaS_Task6                            
00000413  TExaS_Set                              
0000042b  TExaS_Set0                             
00000437  TExaS_Set1                             
00000443  TExaS_Set2                             
0000044f  TExaS_Set3                             
0000045b  TExaS_Set4                             
0000045d  TExaS_Set5                             
00000475  TExaS_Set6                             
00000485  TExaS_Clear0                           
00000491  TExaS_Clear1                           
000004a5  TExaS_Clear2                           
000004b1  TExaS_Clear3                           
000004bd  TExaS_Clear4                           
000004bf  TExaS_Clear5                           
000004cb  TExaS_Clear6                           
000004f1  ADC_Init                               
000005b5  TExaS_Init                             
00000741  TExaS_Stop                             
000007ad  SystemCoreClockUpdate                  
00000a21  SystemInit                             
00000ad9  Clock_Init48MHz                        
00000bef  Clock_GetFreq                          
00000bf5  delay                                  
00000c03  Clock_Delay1us                         
00000c2d  Clock_Delay1ms                         
00000cb9  SysTick_Wait1us                        
00000cdf  Program9_1                             
00000d19  Program9_2                             
00000d79  Program9_3                             
00000e2b  main                                   
00000e5d  LaunchPad_Init                         
00000ecd  LaunchPad_Input                        
00000ee7  LaunchPad_LED                          
00000f05  LaunchPad_Output                       
00000f51  __aeabi_memcpy                         
00000f51  __aeabi_memcpy4                        
00000f51  __aeabi_memcpy8                        
00000f51  memcpy                                 
00000fed  SysTick_Init                           
00000ffd  SysTick_Wait                           
00001023  SysTick_Wait10ms                       
00001059  __TI_decompress_lzss                   
000010c1  __TI_auto_init_nobinit_nopinit         
00001105  _c_int00_noargs                        
00001139  DisableInterrupts                      
0000113f  EnableInterrupts                       
00001145  StartCritical                          
0000114f  EndCritical                            
00001157  WaitForInterrupt                       
0000115d  __TI_zero_init_nomemset                
00001179  __TI_decompress_none                   
00001187  Reset_Handler                          
00001193  ADC14_IRQHandler                       
00001193  AES256_IRQHandler                      
00001193  BusFault_Handler                       
00001193  COMP_E0_IRQHandler                     
00001193  COMP_E1_IRQHandler                     
00001193  CS_IRQHandler                          
00001193  DMA_ERR_IRQHandler                     
00001193  DMA_INT0_IRQHandler                    
00001193  DMA_INT1_IRQHandler                    
00001193  DMA_INT2_IRQHandler                    
00001193  DMA_INT3_IRQHandler                    
00001193  DebugMon_Handler                       
00001193  Default_Handler                        
00001193  EUSCIA0_IRQHandler                     
00001193  EUSCIA1_IRQHandler                     
00001193  EUSCIA2_IRQHandler                     
00001193  EUSCIA3_IRQHandler                     
00001193  EUSCIB0_IRQHandler                     
00001193  EUSCIB1_IRQHandler                     
00001193  EUSCIB2_IRQHandler                     
00001193  EUSCIB3_IRQHandler                     
00001193  FLCTL_IRQHandler                       
00001193  FPU_IRQHandler                         
00001193  HardFault_Handler                      
00001193  MemManage_Handler                      
00001193  NMI_Handler                            
00001193  PCM_IRQHandler                         
00001193  PORT1_IRQHandler                       
00001193  PORT2_IRQHandler                       
00001193  PORT3_IRQHandler                       
00001193  PORT4_IRQHandler                       
00001193  PORT5_IRQHandler                       
00001193  PORT6_IRQHandler                       
00001193  PSS_IRQHandler                         
00001193  PendSV_Handler                         
00001193  RTC_C_IRQHandler                       
00001193  SVC_Handler                            
00001193  SysTick_Handler                        
00001193  T32_INT2_IRQHandler                    
00001193  T32_INTC_IRQHandler                    
00001193  TA0_0_IRQHandler                       
00001193  TA0_N_IRQHandler                       
00001193  TA1_0_IRQHandler                       
00001193  TA1_N_IRQHandler                       
00001193  TA2_0_IRQHandler                       
00001193  TA2_N_IRQHandler                       
00001193  TA3_0_IRQHandler                       
00001193  TA3_N_IRQHandler                       
00001193  UsageFault_Handler                     
00001193  WDT_A_IRQHandler                       
00001195  _system_pre_init                       
00001199  C$$EXIT                                
00001199  abort                                  
0000119c  PulseBuf                               
00001340  __TI_Handler_Table_Base                
0000134c  __TI_Handler_Table_Limit               
00001358  __TI_CINIT_Base                        
00001368  __TI_CINIT_Limit                       
20000000  ClockFrequency                         
20000000  __start___llvm_prf_cnts                
20000000  __stop___llvm_prf_cnts                 
20000004  Prewait                                
20000008  CPMwait                                
2000000c  Postwait                               
20000010  IFlags                                 
20000014  Crystalstable                          
20000018  TExaS_ScopeErrLostData                 
2000001c  TExaS_ScopeErrConflict                 
20000020  TExaS_ScopeWrnReconfig                 
20000024  SystemCoreClock                        
20000028  PeriodicTask2                          
2000002c  LogicData                              
2000fe00  __stack                                
20010000  __STACK_END                            
4000480c  WDTCTL_SYM                             
ffffffff  __TI_pprof_out_hndl                    
ffffffff  __TI_prof_data_size                    
ffffffff  __TI_prof_data_start                   
ffffffff  __binit__                              
ffffffff  __c_args__                             
ffffffff  binit                                  
UNDEFED   __mpu_init                             
UNDEFED   _system_post_cinit                     

[169 symbols]
