******************************************************************************
                  TI ARM Linker PC v18.12.1                    
******************************************************************************
>> Linked Wed Jul 31 21:52:34 2019

OUTPUT FILE NAME:   <InputOutput.out>
ENTRY POINT SYMBOL: "_c_int00_noargs"  address: 00000885


MEMORY CONFIGURATION

         name            origin    length      used     unused   attr    fill
----------------------  --------  ---------  --------  --------  ----  --------
  MAIN                  00000000   00040000  000008f4  0003f70c  R  X
  INFO                  00200000   00004000  00000000  00004000  R  X
  SRAM_CODE             01000000   00010000  00000204  0000fdfc  RW X
  SRAM_DATA             20000000   00010000  00000204  0000fdfc  RW  


SEGMENT ALLOCATION MAP

run origin  load origin   length   init length attrs members
----------  ----------- ---------- ----------- ----- -------
00000000    00000000    000008f8   000008f8    r-x
  00000000    00000000    000000e4   000000e4    r-- .intvecs
  000000e4    000000e4    000007f8   000007f8    r-x .text
  000008e0    000008e0    00000018   00000018    r-- .cinit
20000000    20000000    00000004   00000000    rw-
  20000000    20000000    00000004   00000000    rw- .data
2000fe00    2000fe00    00000200   00000000    rw-
  2000fe00    2000fe00    00000200   00000000    rw- .stack


SECTION ALLOCATION MAP

 output                                  attributes/
section   page    origin      length       input sections
--------  ----  ----------  ----------   ----------------
.intvecs   0    00000000    000000e4     
                  00000000    000000e4     startup_msp432p401r_ccs.obj (.intvecs:retain)

.text      0    000000e4    000007f8     
                  000000e4    0000032c     InputOutput.obj (.text)
                  00000410    0000032c     system_msp432p401r.obj (.text)
                  0000073c    0000009c     rtsv7M4_T_le_v4SPD16_eabi.lib : memcpy_t2.asm.obj (.text)
                  000007d8    00000068                                   : copy_decompress_lzss.c.obj (.text:decompress:lzss:__TI_decompress_lzss)
                  00000840    00000044                                   : autoinit.c.obj (.text:__TI_auto_init_nobinit_nopinit:__TI_auto_init_nobinit_nopinit)
                  00000884    00000034                                   : boot_cortex_m.c.obj (.text:_c_int00_noargs:_c_int00_noargs)
                  000008b8    0000000e                                   : copy_decompress_none.c.obj (.text:decompress:none:__TI_decompress_none)
                  000008c6    0000000e     startup_msp432p401r_ccs.obj (.text)
                  000008d4    00000004     rtsv7M4_T_le_v4SPD16_eabi.lib : pre_init.c.obj (.text:_system_pre_init)
                  000008d8    00000004                                   : exit.c.obj (.text:abort:abort)

.cinit     0    000008e0    00000018     
                  000008e0    00000008     (.cinit..data.load) [load image, compression = lzss]
                  000008e8    00000008     (__TI_handler_table)
                  000008f0    00000008     (__TI_cinit_table)

.init_array 
*          0    00000000    00000000     UNINITIALIZED

.binit     0    00000000    00000000     

.data      0    20000000    00000004     UNINITIALIZED
                  20000000    00000004     system_msp432p401r.obj (.data)

.stack     0    2000fe00    00000200     UNINITIALIZED
                  2000fe00    00000004     rtsv7M4_T_le_v4SPD16_eabi.lib : boot_cortex_m.c.obj (.stack)
                  2000fe04    000001fc     --HOLE--

MODULE SUMMARY

       Module                        code   ro data   rw data
       ------                        ----   -------   -------
    .\
       system_msp432p401r.obj        812    0         8      
       InputOutput.obj               812    0         0      
       startup_msp432p401r_ccs.obj   14     228       0      
    +--+-----------------------------+------+---------+---------+
       Total:                        1638   228       8      
                                                             
    E:\ti\ccs900\ccs\tools\compiler\ti-cgt-arm_18.12.1.LTS\lib\rtsv7M4_T_le_v4SPD16_eabi.lib
       memcpy_t2.asm.obj             156    0         0      
       copy_decompress_lzss.c.obj    104    0         0      
       autoinit.c.obj                68     0         0      
       boot_cortex_m.c.obj           52     0         0      
       copy_decompress_none.c.obj    14     0         0      
       exit.c.obj                    4      0         0      
       pre_init.c.obj                4      0         0      
    +--+-----------------------------+------+---------+---------+
       Total:                        402    0         0      
                                                             
       Stack:                        0      0         1024   
       Linker Generated:             0      24        0      
    +--+-----------------------------+------+---------+---------+
       Grand Total:                  2040   252       1032   


LINKER GENERATED COPY TABLES

__TI_cinit_table @ 000008f0 records: 1, size/record: 8, table size: 8
	.data: load addr=000008e0, load size=00000008 bytes, run addr=20000000, run size=00000004 bytes, compression=lzss


LINKER GENERATED HANDLER TABLE

__TI_handler_table @ 000008e8 records: 2, size/record: 4, table size: 8
	index: 0, handler: __TI_decompress_lzss
	index: 1, handler: __TI_decompress_none


GLOBAL SYMBOLS: SORTED ALPHABETICALLY BY Name 

address   name                          
-------   ----                          
000008d3  ADC14_IRQHandler              
000008d3  AES256_IRQHandler             
000008d3  BusFault_Handler              
000008d9  C$$EXIT                       
000008d3  COMP_E0_IRQHandler            
000008d3  COMP_E1_IRQHandler            
000008d3  CS_IRQHandler                 
00000331  ColorLED_Init                 
000008d3  DMA_ERR_IRQHandler            
000008d3  DMA_INT0_IRQHandler           
000008d3  DMA_INT1_IRQHandler           
000008d3  DMA_INT2_IRQHandler           
000008d3  DMA_INT3_IRQHandler           
000008d3  DebugMon_Handler              
000008d3  Default_Handler               
000008d3  EUSCIA0_IRQHandler            
000008d3  EUSCIA1_IRQHandler            
000008d3  EUSCIA2_IRQHandler            
000008d3  EUSCIA3_IRQHandler            
000008d3  EUSCIB0_IRQHandler            
000008d3  EUSCIB1_IRQHandler            
000008d3  EUSCIB2_IRQHandler            
000008d3  EUSCIB3_IRQHandler            
000008d3  FLCTL_IRQHandler              
000008d3  FPU_IRQHandler                
000008d3  HardFault_Handler             
000008d3  MemManage_Handler             
000008d3  NMI_Handler                   
000008d3  PCM_IRQHandler                
000008d3  PORT1_IRQHandler              
000008d3  PORT2_IRQHandler              
000008d3  PORT3_IRQHandler              
000008d3  PORT4_IRQHandler              
000008d3  PORT5_IRQHandler              
000008d3  PORT6_IRQHandler              
000008d3  PSS_IRQHandler                
000008d3  PendSV_Handler                
000000e5  Port1_Init                    
000001c3  Port1_Init2                   
00000105  Port1_Input                   
00000201  Port1_Input2                  
0000012f  Port1_Output                  
0000020b  Port1_Output2                 
0000010f  Port2_Init                    
00000229  Port2_Init2                   
0000014d  Port2_Output                  
0000025d  Port2_Output2                 
000008d3  RTC_C_IRQHandler              
00000311  RedLED_Init                   
000008c7  Reset_Handler                 
000008d3  SVC_Handler                   
000002dd  Switch_Init                   
000008d3  SysTick_Handler               
20000000  SystemCoreClock               
00000411  SystemCoreClockUpdate         
00000685  SystemInit                    
000008d3  T32_INT1_IRQHandler           
000008d3  T32_INT2_IRQHandler           
000008d3  T32_INTC_IRQHandler           
000008d3  TA0_0_IRQHandler              
000008d3  TA0_N_IRQHandler              
000008d3  TA1_0_IRQHandler              
000008d3  TA1_N_IRQHandler              
000008d3  TA2_0_IRQHandler              
000008d3  TA2_N_IRQHandler              
000008d3  TA3_0_IRQHandler              
000008d3  TA3_N_IRQHandler              
000008d3  UsageFault_Handler            
4000480c  WDTCTL_SYM                    
000008d3  WDT_A_IRQHandler              
20010000  __STACK_END                   
00000200  __STACK_SIZE                  
000008f0  __TI_CINIT_Base               
000008f8  __TI_CINIT_Limit              
000008e8  __TI_Handler_Table_Base       
000008f0  __TI_Handler_Table_Limit      
00000841  __TI_auto_init_nobinit_nopinit
000007d9  __TI_decompress_lzss          
000008b9  __TI_decompress_none          
ffffffff  __TI_pprof_out_hndl           
ffffffff  __TI_prof_data_size           
ffffffff  __TI_prof_data_start          
00000000  __TI_static_base__            
0000073d  __aeabi_memcpy                
0000073d  __aeabi_memcpy4               
0000073d  __aeabi_memcpy8               
ffffffff  __binit__                     
ffffffff  __c_args__                    
UNDEFED   __mpu_init                    
2000fe00  __stack                       
00000885  _c_int00_noargs               
UNDEFED   _system_post_cinit            
000008d5  _system_pre_init              
000008d9  abort                         
ffffffff  binit                         
00000000  interruptVectors              
00000161  main                          
0000027b  main2                         
00000365  main3                         
0000073d  memcpy                        


GLOBAL SYMBOLS: SORTED BY Symbol Address 

address   name                          
-------   ----                          
00000000  __TI_static_base__            
00000000  interruptVectors              
000000e5  Port1_Init                    
00000105  Port1_Input                   
0000010f  Port2_Init                    
0000012f  Port1_Output                  
0000014d  Port2_Output                  
00000161  main                          
000001c3  Port1_Init2                   
00000200  __STACK_SIZE                  
00000201  Port1_Input2                  
0000020b  Port1_Output2                 
00000229  Port2_Init2                   
0000025d  Port2_Output2                 
0000027b  main2                         
000002dd  Switch_Init                   
00000311  RedLED_Init                   
00000331  ColorLED_Init                 
00000365  main3                         
00000411  SystemCoreClockUpdate         
00000685  SystemInit                    
0000073d  __aeabi_memcpy                
0000073d  __aeabi_memcpy4               
0000073d  __aeabi_memcpy8               
0000073d  memcpy                        
000007d9  __TI_decompress_lzss          
00000841  __TI_auto_init_nobinit_nopinit
00000885  _c_int00_noargs               
000008b9  __TI_decompress_none          
000008c7  Reset_Handler                 
000008d3  ADC14_IRQHandler              
000008d3  AES256_IRQHandler             
000008d3  BusFault_Handler              
000008d3  COMP_E0_IRQHandler            
000008d3  COMP_E1_IRQHandler            
000008d3  CS_IRQHandler                 
000008d3  DMA_ERR_IRQHandler            
000008d3  DMA_INT0_IRQHandler           
000008d3  DMA_INT1_IRQHandler           
000008d3  DMA_INT2_IRQHandler           
000008d3  DMA_INT3_IRQHandler           
000008d3  DebugMon_Handler              
000008d3  Default_Handler               
000008d3  EUSCIA0_IRQHandler            
000008d3  EUSCIA1_IRQHandler            
000008d3  EUSCIA2_IRQHandler            
000008d3  EUSCIA3_IRQHandler            
000008d3  EUSCIB0_IRQHandler            
000008d3  EUSCIB1_IRQHandler            
000008d3  EUSCIB2_IRQHandler            
000008d3  EUSCIB3_IRQHandler            
000008d3  FLCTL_IRQHandler              
000008d3  FPU_IRQHandler                
000008d3  HardFault_Handler             
000008d3  MemManage_Handler             
000008d3  NMI_Handler                   
000008d3  PCM_IRQHandler                
000008d3  PORT1_IRQHandler              
000008d3  PORT2_IRQHandler              
000008d3  PORT3_IRQHandler              
000008d3  PORT4_IRQHandler              
000008d3  PORT5_IRQHandler              
000008d3  PORT6_IRQHandler              
000008d3  PSS_IRQHandler                
000008d3  PendSV_Handler                
000008d3  RTC_C_IRQHandler              
000008d3  SVC_Handler                   
000008d3  SysTick_Handler               
000008d3  T32_INT1_IRQHandler           
000008d3  T32_INT2_IRQHandler           
000008d3  T32_INTC_IRQHandler           
000008d3  TA0_0_IRQHandler              
000008d3  TA0_N_IRQHandler              
000008d3  TA1_0_IRQHandler              
000008d3  TA1_N_IRQHandler              
000008d3  TA2_0_IRQHandler              
000008d3  TA2_N_IRQHandler              
000008d3  TA3_0_IRQHandler              
000008d3  TA3_N_IRQHandler              
000008d3  UsageFault_Handler            
000008d3  WDT_A_IRQHandler              
000008d5  _system_pre_init              
000008d9  C$$EXIT                       
000008d9  abort                         
000008e8  __TI_Handler_Table_Base       
000008f0  __TI_CINIT_Base               
000008f0  __TI_Handler_Table_Limit      
000008f8  __TI_CINIT_Limit              
20000000  SystemCoreClock               
2000fe00  __stack                       
20010000  __STACK_END                   
4000480c  WDTCTL_SYM                    
ffffffff  __TI_pprof_out_hndl           
ffffffff  __TI_prof_data_size           
ffffffff  __TI_prof_data_start          
ffffffff  __binit__                     
ffffffff  __c_args__                    
ffffffff  binit                         
UNDEFED   __mpu_init                    
UNDEFED   _system_post_cinit            

[100 symbols]
